:100000000C94BE020C94E6020C94E6020C94E602F8
:100010000C94E6020C94E6020C94E6020C94E602C0
:100020000C94E6020C94E6020C94E6020C94D211B5
:100030000C94E6020C94E6020C94E6020C94E602A0
:100040000C9488110C94E6020C94E6020C94E602DF
:100050000C94E6020C94E6020C94E6020C94E60280
:100060000C94E6020C94E6020101FF030101F70380
:1000700017534400161378001613140015102000AF
:1000800015201000540A03E181867F3E186D830F0E
:100090000F0E0183866033186DC3198F1803C38E4A
:1000A0006033186DE330CF1803C39E603630CDE364
:1000B00060CF3006C79E7E3E30CDB360CF300CC6D9
:1000C000F6603330D9B660CF33CFCCF66061B0DBA9
:1000D0001E60CF30D86CE6C061B0DB1E618F19980E
:1000E0006CC6C063B19B0E330F0FB078C6FF7E1F86
:1000F0001B061E0F47454D47454D2047414D454284
:1001000055494E4F2056310047616D652072657329
:10011000746F726564004E65772067616D65005B82
:10012000632C625D20657869742C205B615D2073AF
:10013000746172740010004C6F61642073617665A5
:1001400064004E65772047616D65004869676820E7
:1001500053636F72653A200047656D47656D0040D7
:100160001E0008000000000000001C00000000004D
:1001700000002A000000000000004900000000000C
:10018000000088800000000000010840010000C05D
:10019000000208203E00EC6000041410621C77602E
:1001A000000C2230C236666F000A495180666660D4
:1001B00000098091817C6660000900919F30667023
:1001C00000090090C231660000090090661E000020
:1001D000000900903E0000000009029000000000AD
:1001E00000090290000800060009069001F007636C
:1001F000000906900310E3BB000A8C900611B3338C
:10020000000C49500C033333000422300C0BE33351
:10021000000214200CF983338001084006118B3052
:10022000000088800330F0000000490001F0000069
:1002300000002A000000000000001C000000000078
:1002400000000800000000000000000000000000A6
:100250000047656D2D47656D20627920546E7845A5
:100260006332006C006800050089300802380249DA
:1002700078681400002047414D45204F56455220D4
:10028000002050415553452000080781007E7A7EAA
:1002900000810807813C7E7A663C8108078124182A
:1002A000181824810807816E7A763C188108078126
:1002B000183C7E3C18810807811818181818810806
:1002C00007813C003C003C810500680138010000CA
:1002D000050038016801000047616D652073617693
:1002E00065642E0000000000240027002A000000A2
:1002F0000000250028002B000A0A153A49676E6F96
:100300007265006D560A0A504C45415345205455BC
:10031000524E204F464620004C4F572042415454E5
:1003200045525921200003053F213F1208120A10AF
:100330000A0E1C0E0C1E0C141A14161F161E131E69
:100340001E1B1E1E1F1E3F213F3A2F3A173D173F0F
:10035000213F181F02040A041F0E04040E1F0A1F67
:100360000A0E0E1F04110E2E252E2F2A2E262929A5
:10037000021F02081F08150E04040E150E15151B8A
:10038000151B040604040C04000000001700030001
:10039000031F0A1F16371A1904130A153A0003001F
:1003A000000E11110E000A040A040E0400300004AD
:1003B00004040010001804031F111F121F101D1544
:1003C0001711151F07041F17151D1F151D01011FEC
:1003D0001F151F17151F000A00003200040A110A1A
:1003E0000A0A110A040115020E11171E051E1F1517
:1003F0000A0E110A1F110E1F15111F05010E111DE6
:100400001F041F111F1108100F1F041B1F10101FA6
:10041000061F1E040F0E110E1F09060E112E1F05BA
:100420001A121509011F011F101F0F180F1F0C1F93
:100430001B041B031C03191513001F1103041811BF
:100440001F000201022020200001020C121E1F12B8
:100450000C0C12120C121F0C1A14041E05242A1E56
:100460001F021C141D1020201D1F0814111F101E18
:10047000041E1E021C0C120C3E0A040C123E1E042A
:100480000214160A020F120E101E0E100E1E081E67
:10049000120C1226281E322A26041E21001F0021BB
:1004A0001E040102013F213FF6E8DBCFC3B8AEA432
:1004B0009B928A827B746E68625C57524E494541BA
:1004C0003E3A3734312E2C29272523214500680157
:1004D0000000172B152010204C4F414445520017A7
:1004E0002B16201314000A4E6F20534420636172B0
:1004F00064206F720A6E6F204C4F414445522E4863
:1005000045580A0A153A45786974001D20466C6101
:100510007368696E670A20206C6F616465722E2EA5
:100520002E0A0A444F4E2754205455524E204F460F
:1005300046210000000000230026002900040404D6
:10054000040404040402020202020203030303037C
:100550000301020408102040800102040810200159
:10056000020408102000000008000201000003043B
:1005700007000000000000000000871B11241FBEC0
:10058000CFEFD8E0DEBFCDBF11E0A0E0B1E0E4EDF9
:10059000FCE302C005900D92A237B107D9F724E021
:1005A000A2E7B1E001C01D92AA3CB207E1F712E058
:1005B000CEEBD2E004C02197FE010E944E1ECD3B3F
:1005C000D107C9F70E941D120C94681E0C940000FC
:1005D00090E0880F991FE0917704F0917804E80F7C
:1005E000F91F259134913093880420938704F901F1
:1005F0008591949190916C04989F802D1124809303
:100600008904F90165917491472F50E0841715060C
:1006100029F020F0F90125913491832F989F802DA6
:10062000112480938A040895833081F028F4813066
:1006300099F08230A9F008958730A9F08830C9F088
:100640008430B1F4809180008F7D03C08091800060
:100650008F7780938000089584B58F7784BD089547
:1006600084B58F7DFBCF8091B0008F778093B000F1
:1006700008958091B0008F7DF9CF1F93CF93DF93C2
:10068000282F30E0F901EB59FA4F8491F901EF5A24
:10069000FA4FD491F901E35CFA4FC491CC23A9F04D
:1006A000162F81110E941403EC2FF0E0EE0FFF1FB4
:1006B000E251FD4FA591B4918FB7F894EC911111CF
:1006C00008C0D095DE23DC938FBFDF91CF911F91BF
:1006D0000895DE2BF8CFCF93C82FF89460E0809177
:1006E000A0040E943D038091A10418161CF460E050
:1006F0000E943D03CEBD00000DB407FEFDCF8EB5B8
:100700008091A10418161CF461E00E943D037894C6
:10071000CF9108950F931F93CF9380919D048F5F86
:1007200080939D0403E412E0C0E08C2F80640E945B
:100730006B0380E80E946B0361E08091A0040E943B
:100740003D038091A10418161CF460E00E943D0353
:10075000F80184E591919EBD00000DB407FEFDCF28
:100760009EB58150B9F78091A10418161CF461E080
:100770000E943D03CF5F0C5A1F4FC630B1F680E494
:10078000CF911F910F910C946B03CF93DF9390E067
:10079000FC01EF5AFA4F2491835C9A4FFC0184913B
:1007A0008823C9F090E0880F991FFC01EC51FD4FA0
:1007B000A591B491FC01E251FD4FC591D491611115
:1007C0000DC09FB7F8948C91209582238C938881DB
:1007D000282328839FBFDF91CF910895623051F481
:1007E0009FB7F8943C91822F809583238C93E88166
:1007F0002E2BEFCF8FB7F894EC912E2B2C938FBF2D
:10080000EACFFF920F931F93CF93DF93C3E4D4E01B
:10081000FF24FA9462E08A850E94C5032A8530E0AD
:10082000F901EB59FA4F8491F901EF5AFA4F04910B
:10083000F901E35CFA4F14911123E1F081110E9458
:100840001403E12FF0E0EE0FFF1FED5CFA4FA591CE
:10085000B491EC9189890E2369F0811113C021961E
:1008600084E0CA34D807B1F6DF91CF911F910F9180
:10087000FF90089589898F5F898B60E08A850E9447
:10088000C503EDCF8F3F11F4198AF7CFF98AF5CF61
:100890001F93CF93DF93182FEB0161E00E94C503F4
:1008A000209739F460E0812FDF91CF911F910C9454
:1008B0003D03CF3FD10511F461E0F5CFE12FF0E02A
:1008C000EB59FA4FE491E33031F140F4E130B1F00B
:1008D000E230E1F0C038D1057CF7E4CFE73029F110
:1008E000E83059F1E430B1F7809180008062809364
:1008F0008000D0938B00C0938A0004C084B58068C8
:1009000084BDC7BDDF91CF911F91089584B58062EA
:1009100084BDC8BDF7CF809180008068809380003F
:10092000D0938900C0938800EDCF8091B00080689B
:100930008093B000C093B300E5CF8091B000806297
:100940008093B000C093B400DDCF8E50806480935C
:100950007C0080917A00806480937A0080917A0094
:1009600086FDFCCF80917800909179000895809168
:1009700067048F7149F584E10E94A504BC01990FB9
:10098000880B990B0E94251D26EE3FE34EEC50E4A8
:100990000E94891D0E94F41C9B0170935E04609369
:1009A0005D04672BB9F084E080935C04EFE5F4E02C
:1009B00080E0419151912417350718F480935C042D
:1009C00008958F5F8430A9F7809167048F5F8093CB
:1009D000670408958FEF80935C04F6CF3FB7F894D7
:1009E0008091360290913702A0913802B09139027D
:1009F00026B5A89B05C02F3F19F00196A11DB11D7A
:100A00003FBFBA2FA92F982F8827BC01CD01620FB5
:100A1000711D811D911D42E0660F771F881F991F70
:100A20004A95D1F708958F929F92AF92BF92CF923D
:100A3000DF92EF92FF924B015C010E94EE046B018A
:100A40007C010E94EE046C197D098E099F09683EA5
:100A5000734081059105A8F321E0821A9108A1084D
:100A6000B10888EEC80E83E0D81EE11CF11C811489
:100A70009104A104B10429F7FF90EF90DF90CF908B
:100A8000BF90AF909F908F900895DC01ED91FC9105
:100A90000190F081E02D0994EF92FF920F931F9344
:100AA000CF93DF938C017B01D0E0C0E0F701EC0F26
:100AB000FD1F6491662361F0D801ED91FC910190D6
:100AC000F081E02DC8010995892B11F02196EECF18
:100AD000CE01DF91CF911F910F91FF90EF9008957C
:100AE000AF92BF92CF92DF92EF92FF920F931F933C
:100AF000CF93DF936C017B018B01040F151FEB017A
:100B00005E01AE18BF08C017D10759F06991D60130
:100B1000ED91FC910190F081E02DC6010995892BA2
:100B200079F7C501DF91CF911F910F91FF90EF9061
:100B3000DF90CF90BF90AF900895FC01178A158A7F
:100B400014A213A2108E10923A0210923B0210923D
:100B50003E021092B40008950F931F93CF93DF933A
:100B6000EC018B010E949D051E870D871B8A1A8A46
:100B700081E0898389E08E8B198E1B8E1D8EDF911B
:100B8000CF911F910F910895E09171048E2F90E005
:100B9000880F991FE0916F04F0917004E80FF91F1E
:100BA000859194918F3F980719F4109268040895E5
:100BB000909374049927880F991FE0917204F09123
:100BC0007304E80FF91F6591749188E694E00E9420
:100BD000AC05809171048F5F8093710408954F92EA
:100BE0005F927F928F929F92AF92BF92CF92DF924D
:100BF000EF92FF920F931F93CF93DF93EC01F901D4
:100C0000E490319684910E2C000CFF08062F062EDE
:100C1000000C110BF801EE0DFF1D1E161F060CF047
:100C2000E1C040330CF0DEC0A82FA42E042E000C2F
:100C3000BB086501C80ED11C87FDDA941C141D0485
:100C40000CF0D0C02E5F3F4F670177E0C70ED11C7C
:100C5000D7FE04C067019EE0C90ED11C93E0D59475
:100C6000C7949A95E1F747FF0AC0A42FA80FCA9C22
:100C7000C001CB9C900D1124281B390B40E08A2F1A
:100C80000A2E000C990B840F911D47FD9A95C19770
:100C900014F0A0E3A41BF8A0E535F10514F0E4E599
:100CA000F0E09E2FCC85C427542F577081E001C0FF
:100CB000880F5A95EAF7459545954595F80174E5ED
:100CC0004702E00DF11D1124AF014D5B5D4FD0E0F7
:100CD0004A2EAA0F5508EE24E394DD24D4151504FA
:100CE0000CF080C0F9017491F1E0FF1219C0A62E3A
:100CF0008A01F901B0E8BB2EA91608F052C09B2C5E
:100D0000972221F0D8019C90982A9C92B69421F4C5
:100D100031967491A0E8BA2EA3940F5F1F4FECCFC9
:100D2000F1101BC0882E8094A62E8A01F901B0E82C
:100D3000BB2EA91608F035C09B2C972221F0D801B4
:100D40009C9098209C92B69421F431967491A0E8DE
:100D5000BA2EA3940F5F1F4FECCFB3E0FB122AC053
:100D6000882E8094962E8A01F901B0E8AB2E991650
:100D7000B8F4BA2CB72241F0D801BC907C2E79246B
:100D800070FE0CC0B82ABC92A69421F431967491DE
:100D9000A0E8AA2E93940F5F1F4FE9CFB820F3CF9E
:100DA000CE25880F19F44C5A5F4F81E0DF5F2C0D80
:100DB0003D1D94CFA62E8A01F901B0E8BB2EA916DD
:100DC00080F79B2C972221F0D8019C9098269C922A
:100DD000B69421F431967491A0E8BA2EA3940F5FD3
:100DE0001F4FEDCFDF91CF911F910F91FF90EF90AB
:100DF000DF90CF90BF90AF909F908F907F905F904B
:100E00004F9008951092BA011092BB011092BC014C
:100E10001092BD01109232021092330210923102F0
:100E20001092B801E8EAF1E084E090E091838083D9
:100E300082E090E093838283E7E7F1E08FEF9FEF1A
:100E40009183808393838283ECEAF1E091838083B2
:100E500093838283089581E0809334021092B901D4
:100E60001092BA011092BB011092BC011092BD0108
:100E70000895DC01643570F5403360F590968C91EF
:100E80009097E62F062E000CFF0B242F2595259515
:100E9000259594E52902E00DF11D1124ED5BFD4F30
:100EA0002081342F37708230B1F4822F90E0032EEE
:100EB00002C0959587950A94E2F78095817081111B
:100EC00014C081E090E001C0880F3A95EAF7809560
:100ED000822380830895833091F71C968C918170D2
:100EE0006427609561708613ECCF81E090E001C0CB
:100EF000880F3A95EAF7822BECCFAF92BF92CF9250
:100F0000DF92EF92FF920F931F93CF93DF93182FEF
:100F1000062FC0E0D3E08AEFD82E9EEFE92E842F73
:100F20008470C82E842F8270B82E842F8870A82ECB
:100F30004170F42ECF5F8C2F880F8F5FE80ECC208E
:100F400081F0402F4D0F612F6C0F81E994E00E94DA
:100F50003907402F4C0F6D2F610F81E994E00E94FB
:100F60003907BB2081F0402F4D1B612F6C0F81E9A9
:100F700094E00E943907402F4C1B6D2F610F81E9CF
:100F800094E00E943907AA2081F0402F4C0F612F76
:100F90006D1B81E994E00E943907402F4D0F612FAE
:100FA0006C1B81E994E00E943907FF2081F0402FFB
:100FB0004C1B612F6D1B81E994E00E943907402F83
:100FC0004D1B612F6C1B81E994E00E943907CD17FE
:100FD0003CF4E7FCAFCFD150D394D394ED0CAACF1F
:100FE000DF91CF911F910F91FF90EF90DF90CF9005
:100FF000BF90AF900895EF92FF920F931F93CF93FE
:10100000DF938C01F62ED42FE22EC0E0CE1544F4EF
:101010006F2D6C0F4D2FC8010E943907CF5FF6CF9F
:10102000DF91CF911F910F91FF90EF900895DF9284
:10103000EF92FF920F931F93CF93DF937C01D62FF4
:10104000D22EC42F002E000C110B040F111D47FDD2
:101050001A958C2F0C2E000C990B8017910744F4D5
:101060002D2D4C2F6D2FC7010E94FB07CF5FF1CFB5
:10107000DF91CF911F910F91FF90EF90DF90089536
:101080004F925F926F927F928F929F92AF92BF9298
:10109000CF92DF92EF92FF920F931F93CF93DF9344
:1010A000EC016A3049F428859D818A85299F800D4D
:1010B00011248A871986A6C06D3009F4A3C08984DB
:1010C00083E588150CF487C0DA848FE28D150CF463
:1010D00082C018852C812150330B129FC001139FB1
:1010E000900D1124880D911D87FC9A9518161906EC
:1010F0000CF071C02D818D2D0D2C000C990B129FC1
:10110000800D911D1124181619060CF064C078A0EA
:10111000C82C912CE62EF12C292D092C000C330B18
:101120008C8190E0281739070CF054C00197E0E05B
:101130002817390771F0E89EF001E99EF00DF89E3E
:10114000F00D11242E0F3F1FEE8DFF8DE20FF31FC8
:10115000E4915D2C612C492C480C2D81862D062CA8
:10116000000C990B2817190691F18CF1AE2EB12CB9
:10117000E0FF16C0113061F4462D4D0D642DCE01F7
:101180000E943907F501F595E7956394510EE5CF77
:10119000012F212F452D6C2DCE010E941708F2CF73
:1011A00089A198A1891771F388A3113041F4462DC4
:1011B0004D0D642DCE010E94390778A2E3CF012F97
:1011C000212F452D6C2DCE010E941708F6CF939448
:1011D000C10EA2CF78A228853C818985239F800DEE
:1011E000112489879F81992369F0082E000C990B9F
:1011F00044E550E0239F401951091124481759072D
:101200000CF452CF81E090E0DF91CF911F910F91CC
:10121000FF90EF90DF90CF90BF90AF909F908F9016
:101220007F906F905F904F900895EF92FF920F9391
:101230001F93CF93DF938C01D62FF42EE22EC0E0C4
:10124000CE1544F44F2D4C0F6D2FC8010E94390765
:10125000CF5FF6CFDF91CF911F910F91FF90EF906D
:1012600008958F929F92AF92BF92CF92DF92EF92AA
:10127000FF920F931F93CF93DF93082FB62E942ED8
:10128000A22E83E0F82ED0E0C3E09AEFE92E1EEF05
:10129000CC24C394C20EDF5F1F0D2C2F220F4B2DC9
:1012A0004C1B8A2C8F0CDB2CDD1A81E02C0D602F5F
:1012B000981218C06D0F81E994E00E941509282D3D
:1012C0004D2D6C2F600F81E994E00E941509DC1709
:1012D0009CF417FD04C0C150E394E3941E0DF394F5
:1012E000F394D9CF6D1B81E994E00E941509282D54
:1012F0004D2D602F6C1BE7CFDF91CF911F910F9188
:10130000FF90EF90DF90CF90BF90AF909F908F9025
:101310000895089590E080E00895FB010190002079
:10132000E9F73197AF01461B570BDC01ED91FC91BA
:101330000280F381E02D0994CF93DF93BC0181E912
:1013400094E00E944C05EC0161E471E081E994E0D5
:101350000E948D098C0F9D1FDF91CF910895E3E4CA
:10136000F2E088EF91E0DF019C011D9221503040B6
:10137000E1F710929A0410929B046BE075E081E90A
:1013800094E00E944C050E948A038CB583608CBD5A
:101390008DB58E7F8DBD84E491E0EEEFFFE309957E
:1013A0001092970486EE94E00E949C090E948A03A2
:1013B0000E94010480915804813039F062E370E0AA
:1013C00080E090E00E941305F3CF08958F929F92E2
:1013D000AF92BF92EF92FF920F931F93CF93DF9341
:1013E000CDB7DEB7A1970FB6F894DEBF0FBECDBF65
:1013F0007C01FA01CB0119A2223008F42AE08E0107
:101400000F5D1F4F822E912CB12CA12CBF01A50185
:1014100094010E94C31CF901CA016A300CF5605D99
:10142000D8016E938D01232B242B252B79F790E087
:1014300080E0109721F0BD01C7010E948D09A1969F
:101440000FB6F894DEBF0FBECDBFDF91CF911F91D5
:101450000F91FF90EF90BF90AF909F908F90089565
:10146000695CDECFCF92DF92EF92FF920F931F93D2
:10147000CF93DF936B01770FEE08FF08F7FE1BC0D9
:10148000EC016DE20E9445058C0144275527BA0105
:101490004C195D096E097F092AE0CE010E94E60918
:1014A000800F911FDF91CF911F910F91FF90EF90CF
:1014B000DF90CF9008952AE0B701A601DF91CF9188
:1014C0001F910F91FF90EF90DF90CF900C94E60961
:1014D0004F925F926F927F928F929F92AF92BF9244
:1014E000CF92DF92EF92FF920F931F93CF93DF93F0
:1014F00000D000D01F92CDB7DEB74091C304509109
:10150000C4046091C5047091C6042FB7F89480910B
:101510003F0290914002A0914102B09142022FBF40
:10152000481B590B6A0B7B0B8091C20490E0B0E022
:10153000A0E00091BE041091BF042091C00430913E
:10154000C10484179507A607B70708F0CEC0011598
:1015500011052105310509F4C8C02FB7F894809111
:101560003F0290914002A0914102B09142022FBFF0
:101570002091C204820F911DA11DB11D8093C3044F
:101580009093C404A093C504B093C6048091B4049E
:101590009091B504A091B604B091B7040196A11D35
:1015A000B11D8093B4049093B504A093B604B09396
:1015B000B7041092BE041092BF041092C00410929F
:1015C000C1040E94EE046093BA047093BB0480933C
:1015D000BC049093BD0480914404909145042FE095
:1015E000289FA001299F500D11245A83498385E12A
:1015F0000E94A504A981BA818A0F9B1FB4E0969529
:101600008795BA95E1F7909345048093440420911F
:101610004304222309F448C060914704262F30E098
:1016200050E040E029833A834B835C83C0904804B8
:10163000D12CF12CE12C40914B0450914C044A01E7
:10164000B12CA12C2091490430914A042901712C1C
:10165000612C8217930728F09C014817590708F45A
:101660009A0150E040E0241935094609570969817B
:101670007A818B819C816C197D098E099F090E945A
:101680001E1EA501940124193509460957090E9417
:10169000911CC20ED31EE41EF51EC09246046C2D92
:1016A00070E085E00E9448040E94010480915F047C
:1016B00090916004892B11F00E94B70481E00F9093
:1016C0000F900F900F900F90DF91CF911F910F917E
:1016D000FF90EF90DF90CF90BF90AF909F908F9052
:1016E0007F906F905F904F900895012B022B032BFA
:1016F00009F06EC180915A0481508E3F28F5809187
:101700005904813009F580916D048F5F60916E04FA
:1017100087FD09C0082E000C990B70E06F5F7F4FAA
:101720000E943A1E682F60936D048FED94E09093B1
:10173000C8048093C70488E48093C9046CEC74E007
:1017400088E694E00E94AC0580915A0481508E3F57
:1017500070F480915804813009F022C382ED94E046
:101760009093C8048093C70488E48093C90480914F
:101770006804882331F080916904811102C00E94BD
:10178000C40580916904882309F43EC080917D04DA
:1017900081113AC08091750490917604E0917A04A9
:1017A000F0917B04EE0FFF1FE80FF91F2591349194
:1017B0002115310509F463C1A90156954795569540
:1017C0004795842F20FD06C18F7380937C04809100
:1017D0006C04839F802D112480937D0410928D04CE
:1017E00010928C0410928B0481E080937F0480938C
:1017F0003E021092800480917A0490917B040196BD
:1018000090937B0480937A0480917F04882341F035
:1018100080917D0481114FC188E694E00E949D056E
:101820008091C904882309F489C08C3008F02DC246
:101830003CE0381B3983FF24F394F0929904109212
:10184000B1041092B204409196044D831981141B87
:10185000042F0D5F4DE2410F2EE463E081E994E037
:101860000E9417085D8154505D83105D252F41E073
:10187000612F80E50E9431092D8142E0612F83E0D4
:101880000E943109F092B104F092B20400919604E2
:101890001981101B8DE2F82EF10E2EE44F2D63E01E
:1018A00081E994E00E94FB0783E0800F8F0D8D8318
:1018B000482F41502EE463E081E994E00E94FB0749
:1018C0000350105D202F412F60E081E994E00E94D9
:1018D0001509202F412F63E581E994E00E94150945
:1018E00041E0612F83E00E947D0742E0612F80E5A7
:1018F0000E947D079D8194509D8344E0692F80E57F
:101900000E947D0748E06D8183E00E947D0784E0AE
:1019100080939A0480919604A981A81BA15DA0934D
:101920009B046091C7047091C80481E994E00E940F
:101930004C058091C90481508093C90480915F0453
:1019400090916004892BE1F0B1E0B093B104109262
:10195000B2049091950485E5891B80939A041092B6
:101960009B0460915C04613009F4FEC108F48FC1EE
:1019700080915B04653008F00EC26B5F811106C276
:101980000E948A038091970481110EC0E3E4F2E083
:1019900088EF91E0DF019C011D9221503040E1F77A
:1019A00010929A0410929B040E94EE046093BE046D
:1019B0007093BF048093C0049093C1042091BA0433
:1019C0003091BB04621B730B7093B9046093B8042D
:1019D00080E075CEC901E6E096958795EA95E1F736
:1019E0008F71932F96959695969590514F704230A2
:1019F00099F1D0F4442309F43CC04130B9F1E091AD
:101A00007A04F0917B043196F0937B04E0937A049E
:101A1000CF01880F991FE0917504F0917604E80FCB
:101A2000F91F25913491C8CE433061F0443039F725
:101A300020916C04289F802D11248093850490931D
:101A40008604DDCF20916C04289F802D1124809383
:101A5000830490938404D3CF20916C04289F802D1D
:101A600011248093810490938204C9CF0E94E802DC
:101A7000C6CF8B3008F08AE080937E04C0CF2091DF
:101A80007904211112C010926904809168048111B7
:101A900005C088E694E00E949D05B6CE0E94C4056C
:101AA00080917A0490917B04B4CF10927B041092C1
:101AB0007A04FC01B6CF815080937D0480918D041F
:101AC000811142C020918B0430918C042F5F3F4FD5
:101AD000C901880F991FE0918704F0918804E80FED
:101AE000F91F85919491482F477040938E04492F98
:101AF0004695469540938F04AC0164E05695479512
:101B00006A95E1F74F7390916C04499F402D112421
:101B100040938D0483FB882780F980933D023093A6
:101B20008C0420938B048091890490E02817390756
:101B300058F020918A04222309F49FC0821B910946
:101B400090938C0480938B0480918D0481508093BA
:101B50008D048091800431E0380F309380044091EF
:101B60007C0420918F04240F80917404280F20930B
:101B70006A0460918304662371F070E0832F032E62
:101B8000000C990B0E943A1E80918404869F200DC0
:101B9000112420936A0480916A0490E0849664E2A0
:101BA00070E00E943A1E80936A0420917E04209384
:101BB0006B0460918104662381F0062E000C770B84
:101BC000832F032E000C990B0E943A1E80918204F1
:101BD000869F200D112420936B0460918504662359
:101BE000A1F0832F330F990B70E00E943A1ECB01B6
:101BF00062E070E00E943A1E2091860490916B048E
:101C0000289F900D112490936B044F3309F43AC030
:101C100080916B048A300CF089E087FD80E080932E
:101C20006B04F894E0916A04F0E0E855FB4FE4910E
:101C3000E0933C022091900430916B0432039001B8
:101C4000112440918E044203C001439F900D112442
:101C500020916D0402C0880F991F2A95E2F797FF23
:101C600002C081589F4F880F892F881F990B80933E
:101C70003B0280933A027894D3CD88E694E00E94A8
:101C80009D0562CF10926B04CCCF1982D4CD88E62B
:101C900094E00E949D051092690421E0209399042C
:101CA000E6E2F3E0E491EF5FE0939504E7E2F3E02E
:101CB000E491EF5FE093960488E293E09093B004A0
:101CC0008093AF041092600410925F041092970406
:101CD00038EA39830E94680A8823E1F368E173E0F7
:101CE00081E994E00E944C0540915D0450915E04AE
:101CF00070E060E02AE081E994E00E94E60963E098
:101D000073E081E994E00E944C05698162956F70EF
:101D100070E081E994E00E94320A68EF72E081E9A4
:101D200094E00E944C0580915804813009F428CE3B
:101D30004981415049834111CDCF70E060E085E099
:101D40000E94480483B7817F846083BF83B781602A
:101D500083BF83B7816083BF889583B78E7F83BF3E
:101D600083B78E7F83BFB6CF8091B4049091B504C2
:101D7000A091B604B091B7048F709927AA27BB270A
:101D800067E00897A105B10508F068E781E994E0EC
:101D90000E944505F5CD882309F4F2CD6FE2F6CF18
:101DA000893209F0E4CC0E94AF09E1CCCF93DF93F4
:101DB000EC01BC01990F880B990B0E941312409102
:101DC000990420919504429FA0011124489F9001FD
:101DD000499F300D589F300D1124369527958AE282
:101DE000821B80939A04BE0181E994E0DF91CF9138
:101DF0000C944C050F931F93CF93DF930EEB11E0E0
:101E0000D0E0C0E0F80161918F01CE010E94831CF7
:101E10002196C534D105B1F7DF91CF911F910F9174
:101E200008958F929F92AF92BF92CF92DF92EF92DE
:101E3000FF920F931F93CF93DF93C0905D04D090D8
:101E40005E04C094D094F12CE12C0E94EE044B016E
:101E50005C010E94EE04A501940120953095409507
:101E6000509560957095809590950E941E1E9B01DF
:101E7000AC01C701B6010E941E1E4B015C01C0905F
:101E80004404D0904504F12CE12C0E94EE046C0D2A
:101E90007D1D8E1D9F1D680D791D8A1D9B1D611561
:101EA00071058105910511F00E942D1CC3E0D2E05F
:101EB0000BE711E087E0882E912CA12CB12CF12C9E
:101EC000E12C0E94DE1B6E01CE0CDF1CA5019401EB
:101ED0000E94911C6F5F7F4F8F4F9F4FF601608371
:101EE000F801EE0DFF1D1082FFEFEF1AFF0A89E0E7
:101EF000E816F10431F72996075F1F4FE2E0C0337F
:101F0000DE07E9F6DF91CF911F910F91FF90EF90DF
:101F1000DF90CF90BF90AF909F908F9008950E94D8
:101F200002071092D5011092D4010E94110F0E9455
:101F30002B0760ED72E088E694E00C94AC05CF923C
:101F4000DF92EF92FF920F931F93CF93DF93182F9F
:101F50008091B304882309F4CCC081E08093990474
:101F6000109298041092970410925B048093B1042D
:101F70008093B204C1E5D2E00CE00E94680A882395
:101F8000E1F3FE01F490F110F090960424E830E0C3
:101F900040E060E081E994E00E94EF054CE04F0DE5
:101FA0002FE531E060E081E994E00E94EF051092B6
:101FB0009A0400939B0461E572E081E994E00E9439
:101FC0004C0580919504982F990F990F891B8D5A74
:101FD00080939A0480919604982F990F990F891BEA
:101FE000835D80939B048091B40484FF6AC080E881
:101FF00090E00E949C0980919504982F990F990F69
:10200000891B8D5A80939A0480919B048F5F8093E3
:102010009B0480916D04882309F456C088E790E002
:102020000E949C0980919504982F990F990F891B04
:102030008D5A80939A0480919B048F5F80939B04B8
:1020400080E790E00E949C09809159048130C1F49E
:1020500080916D048F5F60916E0487FD09C0082E2A
:10206000000C990B70E06F5F7F4F0E943A1E682F43
:1020700060936D046CEC74E088E694E00E94AC051B
:1020800080915804813019F18091B304482F50E0B9
:1020900070E060E0C090B404D090B504E090B60465
:1020A000F090B704C416D506E606F70610F08F3F89
:1020B00071F480915A04813009F05FCF0E94AF091A
:1020C0005CCF8CE790E095CF84E790E0A9CF8FEFCD
:1020D0008093B30488E694E00E949D051092690401
:1020E00060ED72E088E694E00E94AC0581E08093A8
:1020F0005B04112309F402C12EEBE22E21E0F22E43
:102100006701D0E0C0E0CE010E947B1CF601819304
:102110006F012196C431D105B1F764EF70E08EEB09
:1021200091E00E94361CEC01892B09F062C09EEB05
:10213000C92E91E0D92ECE010E947B1CF60181931D
:102140006F012196C534D105B1F7DAE0C4E10EE1A3
:1021500088E2D82ECC24C3940E94680A8823E1F335
:1021600010929B0488E591E00E94D60ED0939A04C9
:10217000D0939B046BE471E081E994E00E944C05EC
:102180006091D2017091D30181E994E00E94320AFA
:10219000C0939A04C0939B0462E471E081E994E0E7
:1021A0000E944C05C0939A0400939B0467E371E07E
:1021B00081E994E00E944C051123F1F1C0939B0446
:1021C000D0939A0465E371E081E994E00E944C05A4
:1021D000D0929B048FE191E00E94D60E809158042A
:1021E000813069F180915504813009F075C01C255A
:1021F00078C064EF70E08EEB91E00E943F1C8EEBA4
:1022000091E030E020E0FC01E20FF31F108E2F5F21
:102210003F4F29303105B9F70996F1E08B3E9F0712
:1022200081F71092D5011092D4011092D30110922F
:10223000D2010E94FA0E89CF00939B04C1CF1123D3
:10224000A1F00E948F0F86E191E090937501809339
:10225000740184E380937601DF91CF911F910F91F8
:10226000FF90EF90DF90CF9008950E940207809139
:10227000D60143E052E02BE731E081110DC00E940E
:10228000110F0E942B0760ED72E088E694E00E9437
:10229000AC0588E091E0D9CF90E080E0FA01E80F4A
:1022A000F91FD701A80FB91F58966C916083F901E7
:1022B000E80FF91F108201968930910579F789E0BE
:1022C000E80EF11C475F5F4F275F3F4FEBEEEE16C6
:1022D000E1E0FE0609F7D5CF80915704813009F47B
:1022E00086CF80915A04813029F080915904813041
:1022F00009F032CF80E00E949F0F2ECFDF91CF9167
:102300001F910F91FF90EF90DF90CF900C948F0F63
:102310001F920F920FB60F9211242F933F938F931A
:102320009F93AF93BF9380913F0290914002A09101
:102330004102B09142023091350223E0230F2D3744
:1023400058F50196A11DB11D2093350280933F02DF
:1023500090934002A0934102B093420280913602D2
:1023600090913702A0913802B09139020196A11DD7
:10237000B11D8093360290933702A0933802B09338
:102380003902BF91AF919F918F913F912F910F9003
:102390000FBE0F901F90189526E8230F0296A11DDF
:1023A000B11DD2CF1F920F920FB60F9211242F930F
:1023B0006F937F938F939F9360913B02662349F1C4
:1023C000809172018F5F8093720190913C02891716
:1023D00000F120913E0281E0282720933E021092D6
:1023E000720180913D02882369F08091000193E49D
:1023F000899F802D1124895B809300010E942E1EED
:1024000090933A0280913A02211101C080E08093BA
:10241000B4009F918F917F916F912F910F900FBE7C
:102420000F901F901895FB0105900020E9F760952B
:1024300070956E0F7F1FCB010895CF93DF93CDB7BB
:10244000DEB76A970FB6F894DEBF0FBECDBF7894A3
:1024500084B5826084BD84B5816084BD85B58260A9
:1024600085BD85B5816085BD80916E00816080935A
:102470006E001092810080918100826080938100C3
:1024800080918100816080938100809180008160D3
:10249000809380008091B10084608093B10080912E
:1024A000B00081608093B00080917A008460809356
:1024B0007A0080917A00826080937A0080917A001D
:1024C000816080937A0080917A00806880937A009E
:1024D0001092C10082E38093C20481E090E0A0E00A
:1024E000B0E08093BE049093BF04A093C004B09367
:1024F000C1048FEF8093B304E0E8F7E725913491AE
:102500002130304C09F002C4E6E9F7E7E491E093AA
:102510009C04E7E9F7E7E491E0934704E8E9F7E78B
:10252000E491E0934804E9E9F7E785919491909369
:102530004A0480934904EBE9F7E7859194919093DD
:102540004C0480934B0487E080936E04EEE9F7E738
:10255000E491E0936D04EFE9F7E7E491E093B304CD
:10256000E0EAF7E7859194919093600480935F048B
:10257000E2EAF7E785919491909362048093610475
:10258000E4EAF7E78591949190936404809363045F
:10259000E6EAF7E785919491909366048093650449
:1025A00011E0109343046FEF70E085E00E9448044F
:1025B00088E080934D0489E080934E0487E0809307
:1025C0004F0486E08093500404E00093510482E0BD
:1025D0008093520481E1809353040E9401048CE3B0
:1025E0009FE090935E0480935D0400935C041093DD
:1025F00067048BE080939F048DE080939E0480E1CC
:102600008093A0048EE08093A2048FE08093A104C5
:10261000109399041093B1041092B204109398048B
:10262000E6E2F3E0E491EF5FE0939504E7E2F3E0A4
:10263000E491EF5FE093960488E293E09093B00416
:102640008093AF041FB7F89480917301811127C064
:10265000E7E4F5E08491EBE5F5E09491E82FF0E014
:10266000EE0FFF1FEC51FD4FA591B491EC91E923C2
:1026700021F461E08AE00E943D0361E08AE00E946B
:10268000C5038CB580618CBD8CB580648CBD61E068
:102690008DE00E94C50361E08BE00E94C50380913C
:1026A00073018F5F809373011FBF8CB58F7D8CBDCD
:1026B0008CB58C7F81608CBD8DB581608DBD8CB5F6
:1026C0008C608CBD61E080919F040E94C50361E035
:1026D00080919E040E94C50361E08091A0040E9445
:1026E000C5038091A20418161CF461E00E94C50382
:1026F0008091A10418161CF461E00E94C50380912A
:10270000A204181674F460E00E943D036AE070E0D1
:1027100080E090E00E94130561E08091A2040E9495
:102720003D0380919E04082E000C990BFC01E35C94
:10273000FA4FE491F0E0EE0FFF1FE251FD4F2591BB
:1027400034913093A6042093A504FC01EF5AFA4F6C
:10275000E491E093AC0480919F04082E000C990B47
:10276000FC01E35CFA4FE491F0E0EE0FFF1FE25151
:10277000FD4F259134913093A4042093A304FC01D0
:10278000EF5AFA4FE491E093AB048091A104082E34
:10279000000C990BFC01E35CFA4FE491F0E0EE0FC2
:1027A000FF1FE251FD4F259134913093A8042093EF
:1027B000A704FC01EF5AFA4FE491E093AD04809135
:1027C000A004082E000C990BFC01E35CFA4FE49185
:1027D000F0E0EE0FFF1FE251FD4F25913491309351
:1027E000AA042093A904FC01EF5AFA4FE491E09364
:1027F000AE0481E20E946B0384E10E946B0380912E
:102800009C0487FF03C08FE780939C0480919C0405
:1028100080680E946B0380E20E946B038CE00E9440
:102820006B030E948A0381E080936C0484E08093B0
:10283000900483E692E0909378048093770480E09C
:102840000E94E80261E070E083E00E944804809109
:10285000B100887F81608093B100F894109280006D
:1028600010928100109285001092840088E191E01E
:102870009093890080938800809181008860809384
:1028800081008091810081608093810080916F0040
:10289000826080936F00789480915F0490916004CF
:1028A000892B11F00E94B70480915904813009F4FA
:1028B0005AC280915C04882309F455C267E672E02D
:1028C00088E694E00E94AC0510925B0481E00E94CF
:1028D0009F0F49E0742EBE016F5F7F4F7A8B698B2B
:1028E00089E090E083509240988F8F8B0E94680A15
:1028F000882309F4C9C680913402811137C08091C0
:102900005A04813099F5709133022EEB31E043E0A7
:1029100052E090E080E060E0711104C0FA01E80F3D
:10292000F91F6081F901E80FF91F608F0196893066
:10293000910589F7275F3F4F475F5F4F91E02B3E3F
:10294000390739F70E94FA0E60ED72E088E694E0EC
:102950000E94AC0588ED92E09093C8048093C70470
:1029600084E38093C90480E00E949F0F809133022A
:1029700081117EC490915904913039F480913202D2
:102980008927809332028093310210913202111113
:10299000FEC000913402002309F4B0C38FB7F8944D
:1029A00020913F02309140024091410250914202F9
:1029B0002B8B3C8B4D8B5E8B8FBF8091BA0190919E
:1029C000BB01A091BC01B091BD01281B390B4A0B82
:1029D0005B0BDA01C901883C9105A105B10508F43A
:1029E000D6C08091B901813009F4C3C1823009F4A5
:1029F0001FC281115AC2109231024BE751E05A8F27
:102A0000498F23E0222E22E0322E41015A01512C1F
:102A1000412C50E040E011E03AE0632EF40130E058
:102A200020E02730310538F480819181891303C07B
:102A30009281891759F0433051050CF058C08081BC
:102A40009185891354C09289891351C0B501620FD1
:102A5000731FDB011C932730310508F087C100810B
:102A60008181081383C18281081380C199E0E92E16
:102A7000F12CE21AF30A81E090E06F01C80ED91E32
:102A8000D601DC900D1109C06B01C80ED91ED6010C
:102A90001C930196E816F90681F743305105FCF4C2
:102AA0000081618506131BC06289061318C06F89F7
:102AB000788D6E0F7F1F7901BDE2EB0EF11CDB01FB
:102AC000AD5FBD4FDC900D110AC0DB01A558BE4FB4
:102AD0001C930196675F7F4FE616F70681F7029712
:102AE000689EB001699E700D1124460E571E2F5F1F
:102AF0003F4F31962930310509F093CF4F5F5F4F3B
:102B0000B9E0AB0EB11CE9E08E0E911C45305105C9
:102B100009F084CF5092B1014092B00148EA51E0EF
:102B200030E020E090E080E0E98DFA8DE80FF91FB9
:102B30006081662341F0B101680F791FDB011C92AF
:102B40002F5F3F4F108201968930910569F7E98D1B
:102B5000FA8D3996FA8FE98FF9E02F0E311C698DC5
:102B60007A8D46175707F1F63093B3012093B201DF
:102B700081E08093B9012B893C894D895E8920933E
:102B8000BA013093BB014093BC015093BD0107E0F3
:102B900022E540E061E081E994E00E94170822E527
:102BA00047E061E081E994E00E94FB0722E54FE005
:102BB00061E081E994E00E94FB0722E547E161E0E2
:102BC00081E994E00E94FB0722E54FE161E081E9A1
:102BD00094E00E94FB0722E547E261E081E994E08E
:102BE0000E94FB0722E54FE261E081E994E00E9448
:102BF000FB0728E247E061E081E994E00E941509C3
:102C000028E247E06AE081E994E00E94150928E2A1
:102C100047E063E181E994E00E94150928E247E07A
:102C20006CE181E994E00E94150928E247E065E241
:102C300081E994E00E94150928E247E06EE281E90B
:102C400094E00E94150928E247E067E381E994E0F7
:102C50000E94150928E247E060E481E994E00E94BF
:102C6000150928E247E069E481E994E00E9415092A
:102C700028E247E062E581E994E00E941509B3E0AB
:102C8000CB2EB2E0DB2E18E0B12CA12C55245394AE
:102C90004501EFEF8E1A9E0AA2E06A2EF12CE12C7C
:102CA00080917701909178018E159F0509F0F2C20D
:102CB0008091790190917A018A159B0509F0EAC209
:102CC0005092B1045092B20407E028E0412F662DE3
:102CD00081E994E00E9417081092B1041092B204A6
:102CE000F601EE0DFF1DE081E150E73008F0DFC294
:102CF0000E2E000CFF0BE158F94E0C944E1E4F198E
:102D00004C1B4F1B521B551B581B5B1B9CE390938A
:102D10009C04109247048093480480E293E09093CF
:102D20004A048093490484ED93E090934C0480938B
:102D30004B0487E080936E0480936D048CEA9DE0E1
:102D40009093600480935F048EED9DE09093620405
:102D50008093610484E79EE090936404809363040D
:102D60008CE39FE019CC10926D04AECD81E090E031
:102D700094CE8091B2019091B3011816190634F5E2
:102D800060ED72E088E694E00E94AC0582E08093FA
:102D9000B9018091B801882371F08091D40190919C
:102DA000D5012091B0013091B101820F931F909312
:102DB000D5018093D4018FEF9FEF9093AD01809365
:102DC000AC019093AF018093AE01D5CE68EC72E078
:102DD00088E694E00E94AC058091AC019091AD0131
:102DE00097FD22C02091AE013091AF01729ED001BB
:102DF000739EB00D1124AD5FBD4FA80FB91F8C910C
:102E00004091AA015091AB012091A8013091A901F4
:102E1000749EF001759EF00D1124ED5FFD4FE20FE1
:102E2000F31F90819C93808383E08093B901C3CF8B
:102E300083E0E82E82E0F82ED7018D917D0181118B
:102E40000FC00E94DE1B27E030E040E050E00E940F
:102E5000911C6F5F7F4F8F4F9F4FF70131976083BA
:102E6000BCE0EB16B2E0FB0639F787E292E0FC012A
:102E700030E020E04081411108C0DF0119974C91FA
:102E800014161CF440831C92102F2F5F3F4F319675
:102E90002930310579F70997E2E083309E0739F749
:102EA000111169CE1092B90166CE8FEF9FEF90930A
:102EB000B5018093B4019093B7018093B60190E07F
:102EC00080E030E020E0E1E1F1E06181262E660F54
:102ED00033086101C20ED31EA0814A2EAA0F5508E5
:102EE00045E0C416D1040CF058C04201880E991E6A
:102EF00059E0851691040CF050C043815901A40E8D
:102F0000B11C47FDBA9465E0A616B1040CF045C0AB
:102F100042817C01E40EF11C47FDFA9479E0E7164A
:102F2000F104DCF54581D901A40FB11D47FDBA9527
:102F3000BA8FA98F15978CF54481BC01640F711D60
:102F400047FD7A956930710544F57C9CA0017D9C14
:102F5000500D11244D5F5D4F480D591DDA01DC9075
:102F60007A9CA0017B9C500D11244D5F5D4F4E0D4E
:102F70005F1DDA014C91D41210C0A98DBA8D7A9ED2
:102F8000A0017B9E500D11244D5F5D4F640F751F96
:102F9000DB014C91D41609F45FC0420E531EB5E01C
:102FA0004B1651040CF098C0280E391E49E0241627
:102FB00031040CF091C042815901A40EB11C47FDAF
:102FC000BA9455E0A516B1040CF086C043814C01BB
:102FD000840E911C47FD9A9469E0861691040CF0CA
:102FE0007BC044816901C40ED11C47FDDA9475E0B1
:102FF000C716D1040CF070C045817C01E40EF11CB1
:1030000047FDFA94A9E0EA16F1040CF065C0749C3F
:10301000A001759C500D11244D5F5D4F420D531D55
:10302000DA016C917A9CA0017B9C500D11244D5FBC
:103030005D4F840E951ED4014C9164134DC07C9C51
:10304000A0017D9C500D11244D5F5D4FE40EF51ED7
:10305000D7014C91641340C09093B5018093B401A3
:103060003093B7012093B60110923102102F81E006
:1030700018271093330210933002112319F1809115
:10308000D4019091D5012091D2013091D30128171C
:103090003907C4F49093D3018093D2018EEB91E071
:1030A00030E020E0FC01E20FF31F108E2F5F3F4F56
:1030B00029303105B9F70996E1E08B3E9E0781F78B
:1030C0000E94FA0E109234028091B801811153CD02
:1030D00081E08093B8014FCD3696B1E0E134FB0733
:1030E00009F0F3CE2F5F3F4F2530310509F0EBCECD
:1030F00001968930910509F0E4CEB9CF809158044A
:10310000813009F05FC080917701909178016091E2
:10311000A8017091A9014091AA015091AB0197FDBE
:1031200065C0E0917901F0917A018617970759F40B
:103130009A01215031092E173F07A9F02E5F3F4F0A
:103140002E173F0781F04E175F0709F04FC09B0114
:10315000215031098217930731F02E5F3F4F8217BC
:10316000930709F043C0749E9001759E300D1124A1
:103170002D5F3D4F620F731FDB012C917E9ED001AE
:103180007F9EB00D1124AD5FBD4FAD01480F591F9B
:10319000DA013C91DB013C93DA012C939093AD0171
:1031A0008093AC01F093AF01E093AE010E942B0736
:1031B0008FEF9FEF909378018093770190937A013E
:1031C00080937901809156048130C9F08091540434
:1031D000813029F58091A8019091A901019797FF6D
:1031E00016C01092A9011092A801D1CC7093780159
:1031F0006093770150937A0140937901E3CF8091F6
:10320000A8019091A9010196893091052CF4909321
:10321000A9018093A801BBCC88E090E0F8CF809111
:103220005704813069F48091AA019091AB01019615
:1032300085309105D4F49093AB018093AA01A7CC7B
:1032400080915504813009F0A2CC8091AA0190911F
:10325000AB0101979093AB018093AA0197FF97CCA4
:103260001092AB011092AA0192CC84E090E0E3CFDF
:1032700090915804913041F080915904813009F0C7
:1032800086CC0E948F0F83CC809130028927809357
:1032900030027DCC5092B1045092B20421CD2FEB7C
:1032A00032E0412F662D81E994E00E94EF05FFEFA7
:1032B000EF1AFF0A29E0620E33E56312F1CCB9E0A0
:1032C000CB0ED11C185F5401103309F0E1CC1092E1
:1032D000B1041092B20481E08093990480939B041E
:1032E00082E080939A046091D4017091D50181E9C4
:1032F00094E00E94320A80913102882309F4DEC1F1
:103300008091990490919504899F802D1124982F84
:10331000990F980F82E5891B80939A046091B401FC
:103320007091B50181E994E00E94320A6BE471E08A
:1033300081E994E00E948D096091B6017091B70116
:1033400081E994E00E94320ADD24D394D092B10442
:10335000D092B20480913402811183C080913302F3
:1033600081117FC08091A8019091A901789E700180
:10337000799EF00C11245FEFE51AF50A0091AA017D
:103380001091AB0153E0000F111F5A95E1F7095F4F
:103390001F4F1092B1041092B20411E01E0D28E0EC
:1033A000402F612F81E994E00E94FB0768E0F62E30
:1033B000F00E28E04F2D612F81E994E00E94FB0779
:1033C000CC24C394C00E27E04C2D6E2D81E994E0EF
:1033D0000E94150919E01E0D27E04C2D612F81E98F
:1033E00094E00E941509D092B104D092B20473E027
:1033F000C72ECE0C402F6C2D81E994E00E94390736
:10340000E5E0DE2EDE0C402F6D2D81E994E00E9478
:1034100039074F2D6C2D81E994E00E9439074F2D1B
:103420006D2D81E994E00E943907F3E0FF2EF00E44
:103430004F2D6E2D81E994E00E9439070B5F402FDC
:103440006E2D81E994E00E9439074F2D612F81E9AB
:1034500094E00E943907402F612F81E994E00E9497
:10346000390780917601882309F46FC044EFD42E88
:10347000D80E8C3008F0D12CE0907401F0907501DA
:10348000B7010F2C000C880B990B0E94131210919E
:10349000990490919504199F102D1124189F102DB7
:1034A0001124BB24B394B0929904B092B104B092A9
:1034B000B204C090960422E0822E8C0C32E0632E7F
:1034C000610EAA24AA94AD0C912E969408E20919D3
:1034D000262D4A2D602F81E994E00E94FB0741E0F0
:1034E0004C0D4A0D262D602F81E994E00E94FB07C8
:1034F000282D4A2D602F81E994E00E9415091F5F55
:10350000612F600F282D4A2D81E994E00E94150952
:103510001092B1041092B204009196040F5F69E218
:103520006919212F4A2D81E994E00E941708B09271
:10353000B104B092B204D0929B04C7010E94D60E8F
:1035400080917601815080937601809132028823A8
:10355000F1F000919604902F969588E1891B809355
:103560009B041092B1041092B2040E5F47E1491B14
:1035700024E560E081E994E00E94170881E08093EF
:10358000B1048093B20481E892E00E94D60E80914B
:103590003302882309F478C080913002882309F42B
:1035A00073C0009196048BE0E82EF12CE01AF1082C
:1035B000EE0CFF1C61E0E61AF1081092B1041092C3
:1035C000B204000F000F0A5F24E54E2D60E081E990
:1035D00094E00E94170881E08093B1048093B204C4
:1035E000E394E0929B0485E792E00E94D60E1AE0F5
:1035F00010939A04809196048F5F90919B04890F99
:1036000080939B046DE471E081E994E00E948D0950
:103610006091D4017091D50181E994E00E94320A51
:1036200010939A04809196048F5F90919B04890F68
:1036300080939B0465E571E081E994E00E948D0927
:103640006091D2017091D30181E994E00E94320A25
:10365000809196048F5F90919B04890F80939B04C7
:103660008091990490919504899FC0011124880F3D
:10367000880F880F9AE2981B90939A0461E671E094
:1036800081E994E00E948D0980E090E0892B09F4A3
:103690002DC90E9400002AC926EB32E002CE2DEA95
:1036A00032E0FFCD24EA32E0FCCD2BE932E0F9CD67
:1036B00022E932E0F6CD29E832E0F3CD4AE0BE015E
:1036C0006F5F7F4F8091D2019091D3010E94461C81
:1036D000E989FA8901900020E9F7319749895A89E7
:1036E000E41BF50B9091990480919504989F902D7F
:1036F000112482E59E9F8019112480939A04BE01B3
:103700006F5F7F4F81E994E00E948D091DCE10927A
:1037100094041092930489E091E090939204809332
:10372000910408958F929F92AF92BF92CF92DF92B1
:10373000EF92FF92CF93DF93EC01688179818A81C8
:103740009B81611571058105910521F464E279ED94
:103750008BE597E02DE133EF41E050E00E94911CB2
:1037600049015A019B01AC01A7EAB1E40E94B01CD7
:103770006B017C01ACEEB4EFA50194010E94BE1C6C
:10378000C60ED71EE81EF91EF7FE06C081E0C81A55
:10379000D108E10880E8F80AC882D982EA82FB826F
:1037A000C701B6019F77DF91CF91FF90EF90DF9037
:1037B000CF90BF90AF909F908F9008958F929F92DF
:1037C000AF92BF92CF92DF92EF92FF926091010190
:1037D00070910201809103019091040161157105BE
:1037E0008105910521F464E279ED8BE597E02DE107
:1037F00033EF41E050E00E94911C49015A019B01C6
:10380000AC01A7EAB1E40E94B01C6B017C01ACEEF4
:10381000B4EFA50194010E94BE1CC60ED71EE81E7F
:10382000F91EF7FE06C081E0C81AD108E10880E859
:10383000F80AC0920101D0920201E0920301F092D5
:103840000401C701B6019F77FF90EF90DF90CF9002
:10385000BF90AF909F908F900895609301017093F7
:10386000020180930301909304010895FB01DC01A0
:103870008D91059080190110D9F3990B0895FB01E2
:10388000DC0105900D920020E1F70895BB274A3036
:1038900031F4992322F4BDE2909581959F4F0C94C9
:1038A000521CBB27FB015527AA27880F991FAA1F67
:1038B000A41710F0A41B83955051B9F7A05DAA334B
:1038C00008F0A95DA193009779F7B111B193119216
:1038D000CB010C946B1CDC01FC01672F71917723E9
:1038E000E1F7329704C07C916D9370836291AE17BB
:1038F000BF07C8F30895F999FECF92BD81BDF89A2C
:10390000992780B50895262FF999FECF1FBA92BD49
:1039100081BD20BD0FB6F894FA9AF99A0FBE0196B0
:103920000895052E97FB1EF400940E94A81C57FDD5
:1039300007D00E94C31C07FC03D04EF40C94A81CB3
:1039400050954095309521953F4F4F4F5F4F0895CB
:1039500090958095709561957F4F8F4F9F4F0895FB
:103960000E94E51CA59F900DB49F900DA49F800D13
:10397000911D11240895B7FF0C94B01C0E94B01C37
:10398000821B930B0895A1E21A2EAA1BBB1BFD01FB
:103990000DC0AA1FBB1FEE1FFF1FA217B307E4072E
:1039A000F50720F0A21BB30BE40BF50B661F771F86
:1039B000881F991F1A9469F7609570958095909566
:1039C0009B01AC01BD01CF010895A29FB001B39F3F
:1039D000C001A39F700D811D1124911DB29F700D18
:1039E000811D1124911D08950E94681D88F09F5724
:1039F00098F0B92F9927B751B0F0E1F0660F771F13
:103A0000881F991F1AF0BA95C9F714C0B13091F008
:103A10000E94821DB1E008950C94821D672F782FBB
:103A20008827B85F39F0B93FCCF3869577956795CD
:103A3000B395D9F73EF490958095709561957F4F39
:103A40008F4F9F4F0895E89409C097FB3EF49095DF
:103A50008095709561957F4F8F4F9F4F9923A9F067
:103A6000F92F96E9BB279395F695879577956795F6
:103A7000B795F111F8CFFAF4BB0F11F460FF1BC03A
:103A80006F5F7F4F8F4F9F4F16C0882311F096E9CD
:103A900011C0772321F09EE8872F762F05C066237B
:103AA00071F096E8862F70E060E02AF09A95660F34
:103AB000771F881FDAF7880F9695879597F90895ED
:103AC00057FD9058440F551F59F05F3F71F04795CF
:103AD000880F97FB991F61F09F3F79F087950895B4
:103AE000121613061406551FF2CF4695F1DF08C0D3
:103AF000161617061806991FF1CF869571056105F0
:103B000008940895E894BB2766277727CB0197F997
:103B100008950E949C1D0C940D1E0E94FF1D38F0FC
:103B20000E94061E20F0952311F00C94F61D0C94B3
:103B3000FC1D11240C94831D0E94601D70F3959F41
:103B4000C1F3950F50E0551F629FF001729FBB2794
:103B5000F00DB11D639FAA27F00DB11DAA1F649F30
:103B60006627B00DA11D661F829F2227B00DA11DE3
:103B7000621F739FB00DA11D621F839FA00D611D69
:103B8000221F749F3327A00D611D231F849F600D8A
:103B9000211D822F762F6A2F11249F5750409AF0B3
:103BA000F1F088234AF0EE0FFF1FBB1F661F771F3F
:103BB000881F91505040A9F79E3F510580F00C940A
:103BC000F61D0C94831D5F3FE4F3983ED4F3869575
:103BD00077956795B795F795E7959F5FC1F7FE2BAA
:103BE000880F911D9695879597F9089597F99F6786
:103BF00080E870E060E008959FEF80EC0895002475
:103C00000A941616170618060906089500240A9441
:103C100012161306140605060895092E0394000CC7
:103C200011F4882352F0BB0F40F4BF2B11F460FF56
:103C300004C06F5F7F4F8F4F9F4F0895DB018F93BD
:103C40009F930E94B01CBF91AF91A29F800D911DC8
:103C5000A39F900DB29F900D11240895991B79E0B8
:103C600004C0991F961708F0961B881F7A95C9F70C
:103C70008095089597FB072E16F4009407D077FDE2
:103C800009D00E94541E07FC05D03EF49095819502
:103C90009F4F0895709561957F4F0895EE0FFF1F18
:103CA0000590F491E02D0994AA1BBB1B51E107C0BC
:103CB000AA1FBB1FA617B70710F0A61BB70B881FBC
:103CC000991F5A95A9F780959095BC01CD0108954B
:043CD000F894FFCF96
:103CD400010100000000000000400870058A098905
:103CE40009000101000200000101010200000001BD
:103CF40001020000010100020100000100020100B4
:103D040000010102010000000200030000000100A4
:103D1400030D0A004C4F41444552003A0053636F6F
:103D240072653A20004869676873636F72653A2068
:103D340000613A20626F6172642C20623A206E65E1
:023D4400770006
:00000001FF
