:100000000C94BE020C94E6020C94E6020C94E602F8
:100010000C94E6020C94E6020C94E6020C94E602C0
:100020000C94E6020C94E6020C94E6020C94D211B5
:100030000C94E6020C94E6020C94E6020C94E602A0
:100040000C9488110C94E6020C94E6020C94E602DF
:100050000C94E6020C94E6020C94E6020C94E60280
:100060000C94E6020C94E6020101FF030101F70380
:1000700017534400161378001613140015102000AF
:1000800015201000540A03E181867F3E186D830F0E
:100090000F0E0183866033186DC3198F1803C38E4A
:1000A0006033186DE330CF1803C39E603630CDE364
:1000B00060CF3006C79E7E3E30CDB360CF300CC6D9
:1000C000F6603330D9B660CF33CFCCF66061B0DBA9
:1000D0001E60CF30D86CE6C061B0DB1E618F19980E
:1000E0006CC6C063B19B0E330F0FB078C6FF7E1F86
:1000F0001B061E0F47454D47454D2047414D454284
:1001000055494E4F2056310047616D652072657329
:10011000746F726564004E65772067616D65005B82
:10012000632C625D20657869742C205B615D2073AF
:10013000746172740010004C6F61642073617665A5
:1001400064004E65772047616D65004869676820E7
:1001500053636F72653A200047656D47656D0040D7
:100160001E0008000000000000001C00000000004D
:1001700000002A000000000000004900000000000C
:10018000000088800000000000010840010000C05D
:10019000000208203E00EC6000041410621C77602E
:1001A000000C2230C236666F000A495180666660D4
:1001B00000098091817C6660000900919F30667023
:1001C00000090090C231660000090090661E000020
:1001D000000900903E0000000009029000000000AD
:1001E00000090290000800060009069001F007636C
:1001F000000906900310E3BB000A8C900611B3338C
:10020000000C49500C033333000422300C0BE33351
:10021000000214200CF983338001084006118B3052
:10022000000088800330F0000000490001F0000069
:1002300000002A000000000000001C000000000078
:1002400000000800000000000000000000000000A6
:100250000047656D2D47656D20627920546E7845A5
:100260006332006C006800050089300802380249DA
:1002700078681400002047414D45204F56455220D4
:10028000002050415553452000080781007E7A7EAA
:1002900000810807813C7E7A663C8108078124182A
:1002A000181824810807816E7A763C188108078126
:1002B000183C7E3C18810807811818181818810806
:1002C00007813C003C003C810500680138010000CA
:1002D000050038016801000047616D652073617693
:1002E00065642E0000000000240027002A000000A2
:1002F0000000250028002B000A0A153A49676E6F96
:100300007265006D560A0A504C45415345205455BC
:10031000524E204F464620004C4F572042415454E5
:1003200045525921200003053F213F1208120A10AF
:100330000A0E1C0E0C1E0C141A14161F161E131E69
:100340001E1B1E1E1F1E3F213F3A2F3A173D173F0F
:10035000213F181F02040A041F0E04040E1F0A1F67
:100360000A0E0E1F04110E2E252E2F2A2E262929A5
:10037000021F02081F08150E04040E150E15151B8A
:10038000151B040604040C04000000001700030001
:10039000031F0A1F16371A1904130A153A0003001F
:1003A000000E11110E000A040A040E0400300004AD
:1003B00004040010001804031F111F121F101D1544
:1003C0001711151F07041F17151D1F151D01011FEC
:1003D0001F151F17151F000A00003200040A110A1A
:1003E0000A0A110A040115020E11171E051E1F1517
:1003F0000A0E110A1F110E1F15111F05010E111DE6
:100400001F041F111F1108100F1F041B1F10101FA6
:10041000061F1E040F0E110E1F09060E112E1F05BA
:100420001A121509011F011F101F0F180F1F0C1F93
:100430001B041B031C03191513001F1103041811BF
:100440001F000201022020200001020C121E1F12B8
:100450000C0C12120C121F0C1A14041E05242A1E56
:100460001F021C141D1020201D1F0814111F101E18
:10047000041E1E021C0C120C3E0A040C123E1E042A
:100480000214160A020F120E101E0E100E1E081E67
:10049000120C1226281E322A26041E21001F0021BB
:1004A0001E040102013F213FF6E8DBCFC3B8AEA432
:1004B0009B928A827B746E68625C57524E494541BA
:1004C0003E3A3734312E2C29272523214500680157
:1004D0000000172B152010204C4F414445520017A7
:1004E0002B16201314000A4E6F20534420636172B0
:1004F00064206F720A6E6F204C4F414445522E4863
:1005000045580A0A153A45786974001D20466C6101
:100510007368696E670A20206C6F616465722E2EA5
:100520002E0A0A444F4E2754205455524E204F460F
:1005300046210000000000230026002900040404D6
:10054000040404040402020202020203030303037C
:100550000301020408102040800102040810200159
:10056000020408102000000008000201000003043B
:1005700007000000000000000000511B11241FBEF6
:10058000CFEFD8E0DEBFCDBF11E0A0E0B1E0E8E6FC
:10059000FCE302C005900D92A237B107D9F724E021
:1005A000A2E7B1E001C01D92A83CB207E1F712E05A
:1005B000CEEBD2E004C02197FE010E94181ECD3B75
:1005C000D107C9F70E941D120C94321E0C94000032
:1005D00090E0880F991FE0917504F0917604E80F80
:1005E000F91F259134913093860420938504F901F5
:1005F0008591949190916A04989F802D1124809305
:100600008704F90165917491472F50E0841715060E
:1006100029F020F0F90125913491832F989F802DA6
:100620001124809388040895833081F028F4813068
:1006300099F08230A9F008958730A9F08830C9F088
:100640008430B1F4809180008F7D03C08091800060
:100650008F7780938000089584B58F7784BD089547
:1006600084B58F7DFBCF8091B0008F778093B000F1
:1006700008958091B0008F7DF9CF1F93CF93DF93C2
:10068000282F30E0F901EB59FA4F8491F901EF5A24
:10069000FA4FD491F901E35CFA4FC491CC23A9F04D
:1006A000162F81110E941403EC2FF0E0EE0FFF1FB4
:1006B000E251FD4FA591B4918FB7F894EC911111CF
:1006C00008C0D095DE23DC938FBFDF91CF911F91BF
:1006D0000895DE2BF8CFCF93C82FF89460E0809177
:1006E0009E040E943D0380919F0418161CF460E054
:1006F0000E943D03CEBD00000DB407FEFDCF8EB5B8
:1007000080919F0418161CF461E00E943D037894C8
:10071000CF9108950F931F93CF9380919B048F5F88
:1007200080939B0401E412E0C0E08C2F80640E945F
:100730006B0380E80E946B0361E080919E040E943D
:100740003D0380919F0418161CF460E00E943D0355
:10075000F80184E591919EBD00000DB407FEFDCF28
:100760009EB58150B9F780919F0418161CF461E082
:100770000E943D03CF5F0C5A1F4FC630B1F680E494
:10078000CF911F910F910C946B03CF93DF9390E067
:10079000FC01EF5AFA4F2491835C9A4FFC0184913B
:1007A0008823C9F090E0880F991FFC01EC51FD4FA0
:1007B000A591B491FC01E251FD4FC591D491611115
:1007C0000DC09FB7F8948C91209582238C938881DB
:1007D000282328839FBFDF91CF910895623051F481
:1007E0009FB7F8943C91822F809583238C93E88166
:1007F0002E2BEFCF8FB7F894EC912E2B2C938FBF2D
:10080000EACFFF920F931F93CF93DF93C1E4D4E01D
:10081000FF24FA9462E08A850E94C5032A8530E0AD
:10082000F901EB59FA4F8491F901EF5AFA4F04910B
:10083000F901E35CFA4F14911123E1F081110E9458
:100840001403E12FF0E0EE0FFF1FED5CFA4FA591CE
:10085000B491EC9189890E2369F0811113C021961E
:1008600084E0C834D807B1F6DF91CF911F910F9182
:10087000FF90089589898F5F898B60E08A850E9447
:10088000C503EDCF8F3F11F4198AF7CFF98AF5CF61
:100890001F93CF93DF93182FEB0161E00E94C503F4
:1008A000209739F460E0812FDF91CF911F910C9454
:1008B0003D03CF3FD10511F461E0F5CFE12FF0E02A
:1008C000EB59FA4FE491E33031F140F4E130B1F00B
:1008D000E230E1F0C038D1057CF7E4CFE73029F110
:1008E000E83059F1E430B1F7809180008062809364
:1008F0008000D0938B00C0938A0004C084B58068C8
:1009000084BDC7BDDF91CF911F91089584B58062EA
:1009100084BDC8BDF7CF809180008068809380003F
:10092000D0938900C0938800EDCF8091B00080689B
:100930008093B000C093B300E5CF8091B000806297
:100940008093B000C093B400DDCF8E50806480935C
:100950007C0080917A00806480937A0080917A0094
:1009600086FDFCCF80917800909179000895809168
:1009700065048F7149F584E10E94A504BC01990FBB
:10098000880B990B0E94EF1C26EE3FE34EEC50E4DF
:100990000E94531D0E94BE1C9B0170935C046093D7
:1009A0005B04672BB9F084E080935A04EDE5F4E032
:1009B00080E0419151912417350718F480935A042F
:1009C00008958F5F8430A9F7809165048F5F8093CD
:1009D000650408958FEF80935A04F6CF3FB7F894DB
:1009E0008091340290913502A0913602B091370285
:1009F00026B5A89B05C02F3F19F00196A11DB11D7A
:100A00003FBFBA2FA92F982F8827BC01CD01620FB5
:100A1000711D811D911D42E0660F771F881F991F70
:100A20004A95D1F708958F929F92AF92BF92CF923D
:100A3000DF92EF92FF924B015C010E94EE046B018A
:100A40007C010E94EE046C197D098E099F09683EA5
:100A5000734081059105A8F321E0821A9108A1084D
:100A6000B10888EEC80E83E0D81EE11CF11C811489
:100A70009104A104B10429F7FF90EF90DF90CF908B
:100A8000BF90AF909F908F900895DC01ED91FC9105
:100A90000190F081E02D0994EF92FF920F931F9344
:100AA000CF93DF938C017B01D0E0C0E0F701EC0F26
:100AB000FD1F6491662361F0D801ED91FC910190D6
:100AC000F081E02DC8010995892B11F02196EECF18
:100AD000CE01DF91CF911F910F91FF90EF9008957C
:100AE000AF92BF92CF92DF92EF92FF920F931F933C
:100AF000CF93DF936C017B018B01040F151FEB017A
:100B00005E01AE18BF08C017D10759F06991D60130
:100B1000ED91FC910190F081E02DC6010995892BA2
:100B200079F7C501DF91CF911F910F91FF90EF9061
:100B3000DF90CF90BF90AF900895FC01178A158A7F
:100B400014A213A2108E1092380210923902109241
:100B50003C021092B40008950F931F93CF93DF933C
:100B6000EC018B010E949D051E870D871B8A1A8A46
:100B700081E0898389E08E8B198E1B8E1D8EDF911B
:100B8000CF911F910F910895E0916F048E2F90E007
:100B9000880F991FE0916D04F0916E04E80FF91F22
:100BA000859194918F3F980719F4109266040895E7
:100BB000909372049927880F991FE0917004F09127
:100BC0007104E80FF91F6591749186E694E00E9424
:100BD000AC0580916F048F5F80936F0408954F92EE
:100BE0005F927F928F929F92AF92BF92CF92DF924D
:100BF000EF92FF920F931F93CF93DF93EC01F901D4
:100C0000E490319684910E2C000CFF08062F062EDE
:100C1000000C110BF801EE0DFF1D1E161F060CF047
:100C2000E1C040330CF0DEC0A82FA42E042E000C2F
:100C3000BB086501C80ED11C87FDDA941C141D0485
:100C40000CF0D0C02E5F3F4F670177E0C70ED11C7C
:100C5000D7FE04C067019EE0C90ED11C93E0D59475
:100C6000C7949A95E1F747FF0AC0A42FA80FCA9C22
:100C7000C001CB9C900D1124281B390B40E08A2F1A
:100C80000A2E000C990B840F911D47FD9A95C19770
:100C900014F0A0E3A41BF8A0E535F10514F0E4E599
:100CA000F0E09E2FCC85C427542F577081E001C0FF
:100CB000880F5A95EAF7459545954595F80174E5ED
:100CC0004702E00DF11D1124AF014F5B5D4FD0E0F5
:100CD0004A2EAA0F5508EE24E394DD24D4151504FA
:100CE0000CF080C0F9017491F1E0FF1219C0A62E3A
:100CF0008A01F901B0E8BB2EA91608F052C09B2C5E
:100D0000972221F0D8019C90982A9C92B69421F4C5
:100D100031967491A0E8BA2EA3940F5F1F4FECCFC9
:100D2000F1101BC0882E8094A62E8A01F901B0E82C
:100D3000BB2EA91608F035C09B2C972221F0D801B4
:100D40009C9098209C92B69421F431967491A0E8DE
:100D5000BA2EA3940F5F1F4FECCFB3E0FB122AC053
:100D6000882E8094962E8A01F901B0E8AB2E991650
:100D7000B8F4BA2CB72241F0D801BC907C2E79246B
:100D800070FE0CC0B82ABC92A69421F431967491DE
:100D9000A0E8AA2E93940F5F1F4FE9CFB820F3CF9E
:100DA000CE25880F19F44C5A5F4F81E0DF5F2C0D80
:100DB0003D1D94CFA62E8A01F901B0E8BB2EA916DD
:100DC00080F79B2C972221F0D8019C9098269C922A
:100DD000B69421F431967491A0E8BA2EA3940F5FD3
:100DE0001F4FEDCFDF91CF911F910F91FF90EF90AB
:100DF000DF90CF90BF90AF909F908F907F905F904B
:100E00004F9008951092B8011092B9011092BA0152
:100E10001092BB01109230021092310210922F02F8
:100E20001092B601E8EAF1E084E090E091838083DB
:100E300082E090E093838283E7E7F1E08FEF9FEF1A
:100E40009183808393838283ECEAF1E091838083B2
:100E500093838283089581E0809332021092B701D8
:100E60001092B8011092B9011092BA011092BB0110
:100E70000895DC01643570F5403360F590968C91EF
:100E80009097E62F062E000CFF0B242F2595259515
:100E9000259594E52902E00DF11D1124EF5BFD4F2E
:100EA0002081342F37708230B1F4822F90E0032EEE
:100EB00002C0959587950A94E2F78095817081111B
:100EC00014C081E090E001C0880F3A95EAF7809560
:100ED000822380830895833091F71C968C918170D2
:100EE0006427609561708613ECCF81E090E001C0CB
:100EF000880F3A95EAF7822BECCFAF92BF92CF9250
:100F0000DF92EF92FF920F931F93CF93DF93182FEF
:100F1000062FC0E0D3E08AEFD82E9EEFE92E842F73
:100F20008470C82E842F8270B82E842F8870A82ECB
:100F30004170F42ECF5F8C2F880F8F5FE80ECC208E
:100F400081F0402F4D0F612F6C0F8FE894E00E94CD
:100F50003907402F4C0F6D2F610F8FE894E00E94EE
:100F60003907BB2081F0402F4D1B612F6C0F8FE89C
:100F700094E00E943907402F4C1B6D2F610F8FE8C2
:100F800094E00E943907AA2081F0402F4C0F612F76
:100F90006D1B8FE894E00E943907402F4D0F612FA1
:100FA0006C1B8FE894E00E943907FF2081F0402FEE
:100FB0004C1B612F6D1B8FE894E00E943907402F76
:100FC0004D1B612F6C1B8FE894E00E943907CD17F1
:100FD0003CF4E7FCAFCFD150D394D394ED0CAACF1F
:100FE000DF91CF911F910F91FF90EF90DF90CF9005
:100FF000BF90AF900895EF92FF920F931F93CF93FE
:10100000DF938C01F62ED42FE22EC0E0CE1544F4EF
:101010006F2D6C0F4D2FC8010E943907CF5FF6CF9F
:10102000DF91CF911F910F91FF90EF900895DF9284
:10103000EF92FF920F931F93CF93DF937C01D62FF4
:10104000D22EC42F002E000C110B040F111D47FDD2
:101050001A958C2F0C2E000C990B8017910744F4D5
:101060002D2D4C2F6D2FC7010E94FB07CF5FF1CFB5
:10107000DF91CF911F910F91FF90EF90DF90089536
:101080004F925F926F927F928F929F92AF92BF9298
:10109000CF92DF92EF92FF920F931F93CF93DF9344
:1010A000EC016A3049F428859D818A85299F800D4D
:1010B00011248A871986A6C06D3009F4A3C08984DB
:1010C00083E588150CF487C0DA848FE28D150CF463
:1010D00082C018852C812150330B129FC001139FB1
:1010E000900D1124880D911D87FC9A9518161906EC
:1010F0000CF071C02D818D2D0D2C000C990B129FC1
:10110000800D911D1124181619060CF064C078A0EA
:10111000C82C912CE62EF12C292D092C000C330B18
:101120008C8190E0281739070CF054C00197E0E05B
:101130002817390771F0E89EF001E99EF00DF89E3E
:10114000F00D11242E0F3F1FEE8DFF8DE20FF31FC8
:10115000E4915D2C612C492C480C2D81862D062CA8
:10116000000C990B2817190691F18CF1AE2EB12CB9
:10117000E0FF16C0113061F4462D4D0D642DCE01F7
:101180000E943907F501F595E7956394510EE5CF77
:10119000012F212F452D6C2DCE010E941708F2CF73
:1011A00089A198A1891771F388A3113041F4462DC4
:1011B0004D0D642DCE010E94390778A2E3CF012F97
:1011C000212F452D6C2DCE010E941708F6CF939448
:1011D000C10EA2CF78A228853C818985239F800DEE
:1011E000112489879F81992369F0082E000C990B9F
:1011F00044E550E0239F401951091124481759072D
:101200000CF452CF81E090E0DF91CF911F910F91CC
:10121000FF90EF90DF90CF90BF90AF909F908F9016
:101220007F906F905F904F900895EF92FF920F9391
:101230001F93CF93DF938C01D62FF42EE22EC0E0C4
:10124000CE1544F44F2D4C0F6D2FC8010E94390765
:10125000CF5FF6CFDF91CF911F910F91FF90EF906D
:1012600008958F929F92AF92BF92CF92DF92EF92AA
:10127000FF920F931F93CF93DF93082FB62E942ED8
:10128000A22E83E0F82ED0E0C3E09AEFE92E1EEF05
:10129000CC24C394C20EDF5F1F0D2C2F220F4B2DC9
:1012A0004C1B8A2C8F0CDB2CDD1A81E02C0D602F5F
:1012B000981218C06D0F8FE894E00E941509282D30
:1012C0004D2D6C2F600F8FE894E00E941509DC17FC
:1012D0009CF417FD04C0C150E394E3941E0DF394F5
:1012E000F394D9CF6D1B8FE894E00E941509282D47
:1012F0004D2D602F6C1BE7CFDF91CF911F910F9188
:10130000FF90EF90DF90CF90BF90AF909F908F9025
:101310000895089590E080E00895FB010190002079
:10132000E9F73197AF01461B570BDC01ED91FC91BA
:101330000280F381E02D0994CF93DF93BC018FE805
:1013400094E00E944C05EC0161E471E08FE894E0C8
:101350000E948D098C0F9D1FDF91CF910895E1E4CC
:10136000F2E088EF91E0DF019C011D9221503040B6
:10137000E1F710929804109299046BE075E08FE801
:1013800094E00E944C050E948A038CB583608CBD5A
:101390008DB58E7F8DBD84E491E0EEEFFFE309957E
:1013A0001092950486EE94E00E949C090E948A03A4
:1013B0000E94010480915604813039F062E370E0AC
:1013C00080E090E00E941305F3CF08958F929F92E2
:1013D000AF92BF92EF92FF920F931F93CF93DF9341
:1013E000CDB7DEB7A1970FB6F894DEBF0FBECDBF65
:1013F0007C01FA01CB0119A2223008F42AE08E0107
:101400000F5D1F4F822E912CB12CA12CBF01A50185
:1014100094010E948D1CF901CA016A300CF5605DCF
:10142000D8016E938D01232B242B252B79F790E087
:1014300080E0109721F0BD01C7010E948D09A1969F
:101440000FB6F894DEBF0FBECDBFDF91CF911F91D5
:101450000F91FF90EF90BF90AF909F908F90089565
:10146000695CDECFCF92DF92EF92FF920F931F93D2
:10147000CF93DF936B01770FEE08FF08F7FE1BC0D9
:10148000EC016DE20E9445058C0144275527BA0105
:101490004C195D096E097F092AE0CE010E94E60918
:1014A000800F911FDF91CF911F910F91FF90EF90CF
:1014B000DF90CF9008952AE0B701A601DF91CF9188
:1014C0001F910F91FF90EF90DF90CF900C94E60961
:1014D0004F925F926F927F928F929F92AF92BF9244
:1014E000CF92DF92EF92FF920F931F93CF93DF93F0
:1014F00000D000D01F92CDB7DEB74091C10450910B
:10150000C2046091C3047091C4042FB7F894809111
:101510003D0290913E02A0913F02B09140022FBF48
:10152000481B590B6A0B7B0B8091C00490E0B0E024
:10153000A0E00091BC041091BD042091BE04309144
:10154000BF0484179507A607B70708F0CEC001159A
:1015500011052105310509F4C8C02FB7F894809111
:101560003D0290913E02A0913F02B09140022FBFF8
:101570002091C004820F911DA11DB11D8093C10453
:101580009093C204A093C304B093C4048091B204A6
:101590009091B304A091B404B091B5040196A11D3B
:1015A000B11D8093B2049093B304A093B404B0939C
:1015B000B5041092BC041092BD041092BE041092A7
:1015C000BF040E94EE046093B8047093B904809342
:1015D000BA049093BB0480914204909143042FE09D
:1015E000289FA001299F500D11245A83498385E12A
:1015F0000E94A504A981BA818A0F9B1FB4E0969529
:101600008795BA95E1F79093430480934204209123
:101610004104222309F448C060914504262F30E09C
:1016200050E040E029833A834B835C83C0904604BA
:10163000D12CF12CE12C4091490450914A044A01EB
:10164000B12CA12C20914704309148042901712C20
:10165000612C8217930728F09C014817590708F45A
:101660009A0150E040E0241935094609570969817B
:101670007A818B819C816C197D098E099F090E945A
:10168000E81DA501940124193509460957090E944E
:101690005B1CC20ED31EE41EF51EC09244046C2DCA
:1016A00070E085E00E9448040E94010480915D047E
:1016B00090915E04892B11F00E94B70481E00F9095
:1016C0000F900F900F900F90DF91CF911F910F917E
:1016D000FF90EF90DF90CF90BF90AF909F908F9052
:1016E0007F906F905F904F900895012B022B032BFA
:1016F00009F06EC18091580481508E3F28F5809189
:101700005704813009F580916B048F5F60916C0400
:1017100087FD09C0082E000C990B70E06F5F7F4FAA
:101720000E94041E682F60936B048FED94E09093E9
:10173000C6048093C50488E48093C7046CEC74E00D
:1017400086E694E00E94AC058091580481508E3F5B
:1017500070F480915604813009F022C382ED94E048
:101760009093C6048093C50488E48093C704809155
:101770006604882331F080916704811102C00E94C1
:10178000C40580916704882309F43EC080917B04DE
:1017900081113AC08091730490917404E0917804AF
:1017A000F0917904EE0FFF1FE80FF91F2591349196
:1017B0002115310509F463C1A90156954795569540
:1017C0004795842F20FD06C18F7380937A04809102
:1017D0006A04839F802D112480937B0410928B04D4
:1017E00010928A041092890481E080937D04809392
:1017F0003C0210927E0480917804909179040196C5
:10180000909379048093780480917D04882341F03B
:1018100080917B0481114FC186E694E00E949D0572
:101820008091C704882309F489C08C3008F02DC248
:101830003CE0381B3983FF24F394F0929704109214
:10184000AF041092B004409194044D831981141B8D
:10185000042F0D5F4DE2410F2EE463E08FE894E02A
:101860000E9417085D8154505D83105D252F41E073
:10187000612F80E50E9431092D8142E0612F83E0D4
:101880000E943109F092AF04F092B00400919404E8
:101890001981101B8DE2F82EF10E2EE44F2D63E01E
:1018A0008FE894E00E94FB0783E0800F8F0D8D830B
:1018B000482F41502EE463E08FE894E00E94FB073C
:1018C0000350105D202F412F60E08FE894E00E94CC
:1018D0001509202F412F63E58FE894E00E94150938
:1018E00041E0612F83E00E947D0742E0612F80E5A7
:1018F0000E947D079D8194509D8344E0692F80E57F
:101900000E947D0748E06D8183E00E947D0784E0AE
:101910008093980480919404A981A81BA15DA09351
:1019200099046091C5047091C6048FE894E00E9408
:101930004C058091C70481508093C70480915D0459
:1019400090915E04892BE1F0B1E0B093AF04109266
:10195000B0049091930485E5891B809398041092BC
:10196000990460915A04613009F4FEC108F48FC1F2
:1019700080915904653008F00EC26B5F811106C278
:101980000E948A038091950481110EC0E1E4F2E087
:1019900088EF91E0DF019C011D9221503040E1F77A
:1019A00010929804109299040E94EE046093BC0473
:1019B0007093BD048093BE049093BF042091B8043B
:1019C0003091B904621B730B7093B7046093B60433
:1019D00080E075CEC901E6E096958795EA95E1F736
:1019E0008F71932F96959695969590514F704230A2
:1019F00099F1D0F4442309F43CC04130B9F1E091AD
:101A00007804F09179043196F0937904E0937804A6
:101A1000CF01880F991FE0917304F0917404E80FCF
:101A2000F91F25913491C8CE433061F0443039F725
:101A300020916A04289F802D112480938304909321
:101A40008404DDCF20916A04289F802D1124809387
:101A5000810490938204D3CF20916A04289F802D23
:101A6000112480937F0490938004C9CF0E94E802E0
:101A7000C6CF8B3008F08AE080937C04C0CF2091E1
:101A80007704211112C010926704809166048111BD
:101A900005C086E694E00E949D05B6CE0E94C4056E
:101AA0008091780490917904B4CF109279041092C7
:101AB0007804FC01B6CF815080937B0480918B0425
:101AC000811142C02091890430918A042F5F3F4FD9
:101AD000C901880F991FE0918504F0918604E80FF1
:101AE000F91F85919491482F477040938C04492F9A
:101AF0004695469540938D04AC0164E05695479514
:101B00006A95E1F74F7390916A04499F402D112423
:101B100040938B0483FB882780F980933B023093AA
:101B20008A04209389048091870490E0281739075C
:101B300058F020918804222309F49FC0821B910948
:101B400090938A048093890480918B0481508093C0
:101B50008B0480917E0431E0380F30937E044091F5
:101B60007A0420918D04240F80917204280F209311
:101B7000680460918104662371F070E0832F032E66
:101B8000000C990B0E94041E80918204869F200DF8
:101B90001124209368048091680490E0849664E2A4
:101BA00070E00E94041E8093680420917C042093BE
:101BB000690460917F04662381F0062E000C770B88
:101BC000832F032E000C990B0E94041E8091800429
:101BD000869F200D1124209369046091830466235D
:101BE000A1F0832F330F990B70E00E94041ECB01EC
:101BF00062E070E00E94041E2091840490916904C8
:101C0000289F900D1124909369044F3309F43AC032
:101C1000809169048A300CF089E087FD80E0809330
:101C20006904F894E0916804F0E0E855FB4FE49112
:101C3000E0933A0220918E043091690432039001BE
:101C4000112440918C044203C001439F900D112444
:101C500020916B0402C0880F991F2A95E2F797FF25
:101C600002C081589F4F880F892F881F990B80933E
:101C70003902809338027894D3CD86E694E00E94AE
:101C80009D0562CF10926904CCCF1982D4CD86E62F
:101C900094E00E949D051092670421E02093970430
:101CA000E6E2F3E0E491EF5FE0939304E7E2F3E030
:101CB000E491EF5FE093940488E293E09093AE04A4
:101CC0008093AD0410925E0410925D04109295040E
:101CD00038EA39830E94680A8823E1F368E173E0F7
:101CE0008FE894E00E944C0540915B0450915C04A5
:101CF00070E060E02AE08FE894E00E94E60963E08B
:101D000073E08FE894E00E944C05698162956F70E2
:101D100070E08FE894E00E94320A68EF72E08FE88A
:101D200094E00E944C0580915604813009F428CE3D
:101D30004981415049834111CDCF70E060E085E099
:101D40000E94480483B7817F846083BF83B781602A
:101D500083BF83B7816083BF889583B78E7F83BF3E
:101D600083B78E7F83BFB6CF8091B2049091B304C6
:101D7000A091B404B091B5048F709927AA27BB270E
:101D800067E00897A105B10508F068E78FE894E0DF
:101D90000E944505F5CD882309F4F2CD6FE2F6CF18
:101DA000893209F0E4CC0E94AF09E1CCCF93DF93F4
:101DB000EC01BC01990F880B990B0E941312409102
:101DC000970420919304429FA0011124489F900101
:101DD000499F300D589F300D1124369527958AE282
:101DE000821B80939804BE018FE894E0DF91CF912D
:101DF0000C944C050F931F93CF93DF930CEB11E0E2
:101E0000D0E0C0E0F80161918F01CE010E944D1C2D
:101E10002196C534D105B1F7DF91CF911F910F9174
:101E200008958F929F92AF92BF92CF92DF92EF92DE
:101E3000FF920F931F93CF93DF93C0905B04D090DA
:101E40005C04C094D094F12CE12C0E94EE044B0170
:101E50005C010E94EE04A501940120953095409507
:101E6000509560957095809590950E94E81D9B0116
:101E7000AC01C701B6010E94E81D4B015C01C09096
:101E80004204D0904304F12CE12C0E94EE046C0D2E
:101E90007D1D8E1D9F1D680D791D8A1D9B1D611561
:101EA00071058105910511F00E94F71BC1E0D2E098
:101EB0000BE711E087E0882E912CA12CB12CF12C9E
:101EC000E12C0E94A81B6E01CE0CDF1CA501940121
:101ED0000E945B1C6F5F7F4F8F4F9F4FF6016083A7
:101EE000F801EE0DFF1D1082FFEFEF1AFF0A89E0E7
:101EF000E816F10431F72996075F1F4FE2E0CE3272
:101F0000DE07E9F6DF91CF911F910F91FF90EF90DF
:101F1000DF90CF90BF90AF909F908F9008950E94D8
:101F200002071092D3011092D2010E94110F0E9459
:101F30002B0760ED72E086E694E00C94AC05CF923E
:101F4000DF92EF92FF920F931F93CF93DF93182F9F
:101F50008091B104882309F4CCC081E08093970478
:101F60001092960410929504109259048093AF0435
:101F70008093B004C1E5D2E00CE00E94680A882397
:101F8000E1F3FE01F490F110F090940424E830E0C5
:101F900040E060E08FE894E00E94EF054CE04F0DD8
:101FA0002FE531E060E08FE894E00E94EF051092A9
:101FB00098040093990461E572E08FE894E00E9430
:101FC0004C0580919304982F990F990F891B8D5A76
:101FD0008093980480919404982F990F990F891BEE
:101FE000835D809399048091B20484FF6AC080E885
:101FF00090E00E949C0980919304982F990F990F6B
:10200000891B8D5A80939804809199048F5F8093E7
:10201000990480916B04882309F456C088E790E006
:102020000E949C0980919304982F990F990F891B06
:102030008D5A80939804809199048F5F80939904BE
:1020400080E790E00E949C09809157048130C1F4A0
:1020500080916B048F5F60916C0487FD09C0082E2E
:10206000000C990B70E06F5F7F4F0E94041E682F79
:1020700060936B046CEC74E086E694E00E94AC051F
:1020800080915604813019F18091B104482F50E0BD
:1020900070E060E0C090B204D090B304E090B4046B
:1020A000F090B504C416D506E606F70610F08F3F8B
:1020B00071F480915804813009F05FCF0E94AF091C
:1020C0005CCF8CE790E095CF84E790E0A9CF8FEFCD
:1020D0008093B10486E694E00E949D051092670407
:1020E00060ED72E086E694E00E94AC0581E08093AA
:1020F0005904112309F402C12CEBE22E21E0F22E47
:102100006701D0E0C0E0CE010E94451CF60181933A
:102110006F012196C431D105B1F764EF70E08CEB0B
:1021200091E00E94001CEC01892B09F062C09CEB3D
:10213000C92E91E0D92ECE010E94451CF601819353
:102140006F012196C534D105B1F7DAE0C4E10EE1A3
:1021500088E2D82ECC24C3940E94680A8823E1F335
:102160001092990488E591E00E94D60ED0939804CD
:10217000D09399046BE471E08FE894E00E944C05E1
:102180006091D0017091D1018FE894E00E94320AF1
:10219000C0939804C093990462E471E08FE894E0DE
:1021A0000E944C05C09398040093990467E371E082
:1021B0008FE894E00E944C051123F1F1C09399043B
:1021C000D093980465E371E08FE894E00E944C0599
:1021D000D09299048FE191E00E94D60E809156042E
:1021E000813069F180915304813009F075C01C255C
:1021F00078C064EF70E08CEB91E00E94091C8CEBDE
:1022000091E030E020E0FC01E20FF31F108E2F5F21
:102210003F4F29303105B9F70996F1E0893E9F0714
:1022200081F71092D3011092D2011092D101109235
:10223000D0010E94FA0E89CF00939904C1CF1123D7
:10224000A1F00E948F0F86E191E090937501809339
:10225000740184E380937601DF91CF911F910F91F8
:10226000FF90EF90DF90CF9008950E940207809139
:10227000D40141E052E02BE731E081110DC00E9412
:10228000110F0E942B0760ED72E086E694E00E9439
:10229000AC0588E091E0D9CF90E080E0FA01E80F4A
:1022A000F91FD701A80FB91F58966C916083F901E7
:1022B000E80FF91F108201968930910579F789E0BE
:1022C000E80EF11C475F5F4F275F3F4FE9EEEE16C8
:1022D000E1E0FE0609F7D5CF80915504813009F47D
:1022E00086CF80915804813029F080915704813045
:1022F00009F032CF80E00E949F0F2ECFDF91CF9167
:102300001F910F91FF90EF90DF90CF900C948F0F63
:102310001F920F920FB60F9211242F933F938F931A
:102320009F93AF93BF9380913D0290913E02A09105
:102330003F02B09140023091330223E0230F2D374A
:1023400058F50196A11DB11D2093330280933D02E3
:1023500090933E02A0933F02B093400280913402DA
:1023600090913502A0913602B09137020196A11DDD
:10237000B11D8093340290933502A0933602B0933E
:102380003702BF91AF919F918F913F912F910F9005
:102390000FBE0F901F90189526E8230F0296A11DDF
:1023A000B11DD2CF1F920F920FB60F9211242F930F
:1023B0006F937F938F939F9360913902662349F1C6
:1023C000809172018F5F8093720190913A02891718
:1023D00000F120913C0281E0282720933C021092DA
:1023E000720180913B02882369F08091000193E49F
:1023F000899F802D1124895B809300010E94F81D24
:102400009093380280913802211101C080E08093BE
:10241000B4009F918F917F916F912F910F900FBE7C
:102420000F901F901895FB0105900020E9F760952B
:1024300070956E0F7F1FCB010895CF93DF93CDB7BB
:10244000DEB769970FB6F894DEBF0FBECDBF7894A4
:1024500084B5826084BD84B5816084BD85B58260A9
:1024600085BD85B5816085BD80916E00816080935A
:102470006E001092810080918100826080938100C3
:1024800080918100816080938100809180008160D3
:10249000809380008091B10084608093B10080912E
:1024A000B00081608093B00080917A008460809356
:1024B0007A0080917A00826080937A0080917A001D
:1024C000816080937A0080917A00806880937A009E
:1024D0001092C10082E38093C00481E090E0A0E00C
:1024E000B0E08093BC049093BD04A093BE04B0936D
:1024F000BF048FEF8093B104E0E8F7E725913491B2
:102500002130304C09F0D4C3E6E9F7E7E491E093D9
:102510009A04E7E9F7E7E491E0934504E8E9F7E78F
:10252000E491E0934604E9E9F7E78591949190936B
:10253000480480934704EBE9F7E7859194919093E1
:102540004A048093490487E080936C04EEE9F7E73E
:10255000E491E0936B04EFE9F7E7E491E093B104D1
:10256000E0EAF7E78591949190935E0480935D048F
:10257000E2EAF7E7859194919093600480935F0479
:10258000E4EAF7E785919491909362048093610463
:10259000E6EAF7E78591949190936404809363044D
:1025A00011E0109341046FEF70E085E00E94480451
:1025B00088E080934B0489E080934C0487E080930B
:1025C0004D0486E080934E0404E000934F0482E0C3
:1025D0008093500481E1809351040E9401048CE3B4
:1025E0009FE090935C0480935B0400935A041093E3
:1025F00065048BE080939D048DE080939C0480E1D2
:1026000080939E048EE08093A0048FE080939F04CB
:10261000109397041093AF041092B0041093960493
:10262000E6E2F3E0E491EF5FE0939304E7E2F3E0A6
:10263000E491EF5FE093940488E293E09093AE041A
:102640008093AD041FB7F89480917301811127C066
:10265000E7E4F5E08491EBE5F5E09491E82FF0E014
:10266000EE0FFF1FEC51FD4FA591B491EC91E923C2
:1026700021F461E08AE00E943D0361E08AE00E946B
:10268000C5038CB580618CBD8CB580648CBD61E068
:102690008DE00E94C50361E08BE00E94C50380913C
:1026A00073018F5F809373011FBF8CB58F7D8CBDCD
:1026B0008CB58C7F81608CBD8DB581608DBD8CB5F6
:1026C0008C608CBD61E080919D040E94C50361E037
:1026D00080919C040E94C50361E080919E040E9449
:1026E000C5038091A00418161CF461E00E94C50384
:1026F00080919F0418161CF461E00E94C50380912C
:10270000A004181674F460E00E943D036AE070E0D3
:1027100080E090E00E94130561E08091A0040E9497
:102720003D0380919C04082E000C990BFC01E35C96
:10273000FA4FE491F0E0EE0FFF1FE251FD4F2591BB
:1027400034913093A4042093A304FC01EF5AFA4F70
:10275000E491E093AA0480919D04082E000C990B4B
:10276000FC01E35CFA4FE491F0E0EE0FFF1FE25151
:10277000FD4F259134913093A2042093A104FC01D4
:10278000EF5AFA4FE491E093A90480919F04082E38
:10279000000C990BFC01E35CFA4FE491F0E0EE0FC2
:1027A000FF1FE251FD4F259134913093A6042093F1
:1027B000A504FC01EF5AFA4FE491E093AB04809139
:1027C0009E04082E000C990BFC01E35CFA4FE49187
:1027D000F0E0EE0FFF1FE251FD4F25913491309351
:1027E000A8042093A704FC01EF5AFA4FE491E09368
:1027F000AC0481E20E946B0384E10E946B03809130
:102800009A0487FF03C08FE780939A0480919A040B
:1028100080680E946B0380E20E946B038CE00E9440
:102820006B030E948A0381E080936A0484E08093B2
:102830008E0483E692E0909376048093750480E0A2
:102840000E94E80261E070E083E00E944804809109
:10285000B100887F81608093B100F894109280006D
:1028600010928100109285001092840088E191E01E
:102870009093890080938800809181008860809384
:1028800081008091810081608093810080916F0040
:10289000826080936F00789480915D0490915E04D3
:1028A000892B11F00E94B70480915704813009F4FC
:1028B0002CC280915A04882309F427C267E672E08B
:1028C00086E694E00E94AC051092590481E00E94D3
:1028D0009F0FBE016F5F7F4F1B0189E090E0DC011D
:1028E000A150B240BF8BAE8B19E00E94680A8823CA
:1028F00009F49BC680913202811137C0809158043F
:10290000813099F5709131022CEB31E041E052E0D9
:1029100090E080E060E0711104C0FA01E80FF91F57
:102920006081F901E80FF91F608F019689309105E8
:1029300089F7275F3F4F475F5F4FB1E0293E3B0775
:1029400039F70E94FA0E60ED72E086E694E00E948C
:10295000AC0588ED92E09093C6048093C50484E3AF
:102960008093C70480E00E949F0F80913102811103
:102970004AC490915704913039F4809130028927EC
:102980008093300280932F02009130020111D0C059
:10299000E0913202E98BEE2309F47BC38FB7F89400
:1029A00020913D0230913E0240913F025091400201
:1029B0002A8B3B8B4C8B5D8B8FBF8091B8019091A4
:1029C000B901A091BA01B091BB01281B390B4A0B88
:1029D0005B0BDA01C901883C9105A105B10508F43A
:1029E000A7C08091B701813009F492C1823009F407
:1029F000EAC1811125C210922F026BE771E091E0CC
:102A0000A92E92E0B92E75019B01712C612C01E079
:102A1000F70190E080E02C014FEF441A540AA20124
:102A200087309105E8F49080D1809D1019C0D28044
:102A30009D1016C06901C80ED91ED6010C936701FE
:102A4000C40ED51ED601DC909D100AC06901C40ECB
:102A5000D51ED6010C934F5F5F4F4930510579F772
:102A6000B3E06B16710404F59080418594121CC08C
:102A70004289941219C0A901480F591FDA010C9319
:102A80004E895F894E0F5F1F8D96DA01AF5FBD4F94
:102A9000DC909D1009C0DA01A558BE4F0C93475F2A
:102AA0005F4F8417950789F73196C20189309105E8
:102AB00009F0B1CFBFEF6B1A7B0A275F3F4FE9E008
:102AC000EE0EF11CF5E06F16710409F0A1CF30E0B5
:102AD00020E090E080E0FB01E80FF91F40814423F3
:102AE00039F0D501A80FB91F1C922F5F3F4F1082FC
:102AF00001968930910579F7675F7F4F49E0A40E11
:102B0000B11C51E0683A750721F73093B101209369
:102B1000B00181E08093B7012A893B894C895D89A6
:102B20002093B8013093B9014093BA015093BB018F
:102B300007E022E540E061E08FE894E00E9417089A
:102B400022E547E061E08FE894E00E94FB0722E580
:102B50004FE061E08FE894E00E94FB0722E547E147
:102B600061E08FE894E00E94FB0722E54FE161E01D
:102B70008FE894E00E94FB0722E547E261E08FE8DE
:102B800094E00E94FB0722E54FE261E08FE894E0C9
:102B90000E94FB0728E247E061E08FE894E00E9492
:102BA000150928E247E06AE08FE894E00E941509E1
:102BB00028E247E063E18FE894E00E94150928E2EB
:102BC00047E06CE18FE894E00E94150928E247E0B5
:102BD00065E28FE894E00E94150928E247E06EE282
:102BE0008FE894E00E94150928E247E067E38FE848
:102BF00094E00E94150928E247E060E48FE894E041
:102C00000E94150928E247E069E48FE894E00E94F9
:102C1000150928E247E062E58FE894E00E94150973
:102C2000B1E0AB2EB2E0BB2E08E0F02E912C812C4F
:102C30007724739424012FEF421A520AA2E0EA2E5D
:102C4000D12CC12C80917701909178018C159D0534
:102C500009F0EBC28091790190917A01881599056C
:102C600009F0E3C27092AF047092B00407E028E06C
:102C70004F2D6E2D8FE894E00E9417081092AF043C
:102C80001092B004F501EC0DFD1DE081E150E7303C
:102C900008F0D8C20E2E000CFF0BEF5AF94E0C9420
:102CA000181E1A191D1B201B231B261B291B2C1B3E
:102CB0009CE390939A04109245048093460480E22A
:102CC00093E0909348048093470484ED93E09093BD
:102CD0004A048093490487E080936C0480936B04DA
:102CE0008CEA9DE090935E0480935D048EED9DE000
:102CF0009093600480935F0484E79EE09093620465
:102D0000809361048CE39FE047CC10926B04DCCD90
:102D1000E090B001F090B1011E141F0414F560EDB5
:102D200072E086E694E00E94AC0582E08093B701F1
:102D30008091B601882351F08091D2019091D30106
:102D4000E80EF91EF092D301E092D2018FEF9FEFCF
:102D50009093AD018093AC019093AF018093AE014D
:102D6000DBCE68EC72E086E694E00E94AC058091D0
:102D7000AC019091AD0197FD22C02091AE01309140
:102D8000AF01129FD001139FB00D1124AF5FBD4F53
:102D9000A80FB91F8C914091AA015091AB012091CD
:102DA000A8013091A901149FF001159FF00D112485
:102DB000EF5FFD4FE20FF31F90819C93808383E0D0
:102DC0008093B701C3CF81E0E82E82E0F82ED701CF
:102DD0008D917D0181110FC00E94A81B27E030E07A
:102DE00040E050E00E945B1C6F5F7F4F8F4F9F4F12
:102DF000F70131976083BAE0EB16B2E0FB0639F7D2
:102E000085E292E0FC0130E020E04081411108C001
:102E1000DF0119974C9114161CF440831C92098908
:102E20002F5F3F4F31962930310579F70997E2E05E
:102E300081309E0739F701116FCE1092B7016CCE29
:102E40008FEF9FEF9093B3018093B2019093B50100
:102E50008093B40190E080E030E020E0E1E1F1E037
:102E60006181662E660F77086301C20ED31EA081B2
:102E70004A2EAA0F550845E0C416D1040CF058C0DC
:102E80004201880E991E59E0851691040CF050C03D
:102E900043815901A40EB11C47FDBA9465E0A61602
:102EA000B1040CF045C042817C01E40EF11C47FDE9
:102EB000FA9479E0E716F104DCF54581D901A40F15
:102EC000B11D47FDBA95B98FA88F15978CF5448130
:102ED000BC01640F711D47FD7A956930710544F599
:102EE0001C9DA0011D9D500D11244F5F5D4F480D8D
:102EF000591DDA01DC901A9DA0011B9D500D112473
:102F00004F5F5D4F4E0D5F1DDA014C91D41210C022
:102F1000A88DB98D1A9FA0011B9F500D11244F5FE2
:102F20005D4F640F751FDB014C91D41609F45FC02F
:102F3000420E531EB5E04B1651040CF098C0B3017D
:102F4000680F791F693071050CF091C042815901F9
:102F5000A40EB11C47FDBA9445E0A416B1040CF0D0
:102F600086C043814C01840E911C47FD9A9459E020
:102F7000851691040CF07BC044816901C40ED11CFC
:102F800047FDDA94A5E0CA16D1040CF070C0458163
:102F90007C01E40EF11C47FDFA94B9E0EB16F10454
:102FA0000CF065C0149DA001159D500D11244F5FBC
:102FB0005D4F460F571FDA016C911A9DA0011B9DB2
:102FC000500D11244F5F5D4F840E951ED4014C911E
:102FD00064134DC01C9DA0011D9D500D11244F5F19
:102FE0005D4FE40EF51ED7014C91641340C09093E1
:102FF000B3018093B2013093B5012093B4011092D4
:103000002F02098981E008270093310200932E02E4
:10301000002319F18091D2019091D3012091D00128
:103020003091D10128173907C4F49093D1018093CE
:10303000D0018CEB91E030E020E0FC01E20FF31FC7
:10304000108E2F5F3F4F29303105B9F70996E1E027
:10305000893E9E0781F70E94FA0E109232028091FB
:10306000B601811159CD81E08093B60155CD3696D8
:10307000B1E0E134FB0709F0F3CE2F5F3F4F25307D
:10308000310509F0EBCE01968930910509F0E4CEC7
:10309000B9CF80915604813009F05FC080917701EB
:1030A000909178016091A8017091A9014091AA01C5
:1030B0005091AB0197FD65C0E0917901F0917A01E3
:1030C0008617970759F49A01215031092E173F07A7
:1030D000A9F02E5F3F4F2E173F0781F0E417F50749
:1030E00009F04FC09B01215031098217930731F03D
:1030F0002E5F3F4F8217930709F043C0149F900142
:10310000159F300D11242F5F3D4F620F731FDB01A0
:103110002C911E9FD0011F9FB00D1124AF5FBD4F9A
:10312000AD01480F591FDA013C91DB013C93DA01F4
:103130002C939093AD018093AC01F093AF01E09399
:10314000AE010E942B078FEF9FEF90937801809341
:10315000770190937A0180937901809154048130B2
:10316000C9F080915204813029F58091A801909195
:10317000A901019797FF16C01092A9011092A8010A
:10318000D7CC709378016093770150937A01409384
:103190007901E3CF8091A8019091A901019689302E
:1031A00091052CF49093A9018093A801C1CC88E0EB
:1031B00090E0F8CF80915504813069F48091AA01A4
:1031C0009091AB01019685309105D4F49093AB01B9
:1031D0008093AA01ADCC80915304813009F0A8CC32
:1031E0008091AA019091AB0101979093AB018093DC
:1031F000AA0197FF9DCC1092AB011092AA0198CC26
:1032000084E090E0E3CF90915604913041F08091BA
:103210005704813009F08CCC0E948F0F89CC8091AB
:103220002E02892780932E0283CC7092AF04709275
:10323000B00428CD2FEB32E04F2D6E2D8FE894E0B7
:103240000E94EF053FEFC31AD30A49E0E40E53E5AD
:10325000E512F8CCB9E0AB0EB11CE8E0FE0E42017D
:10326000F0E3FF12E7CC1092AF041092B00481E0BB
:10327000809397048093990482E0809398046091EE
:10328000D2017091D3018FE894E00E94320A8091BC
:103290002F02882309F4E3C180919704909193044D
:1032A000899F802D1124982F990F980F82E5891BF3
:1032B000809398046091B2017091B3018FE894E01B
:1032C0000E94320A6BE471E08FE894E00E948D095D
:1032D0006091B4017091B5018FE894E00E94320AC8
:1032E00001E00093AF040093B00480913202811199
:1032F00086C080913102811182C08091A801909195
:10330000A901189F6001199FD00C11246FEFC61AF4
:10331000D60AE090AA01F090AB0153E0EE0CFF1C3E
:103320005A95E1F777E0E70EF11C1092AF04109286
:10333000B004FF24F394FC0C28E04E2D6F2D8FE891
:1033400094E00E94FB0768E0D62EDE0C28E04D2DAD
:103350006F2D8FE894E00E94FB07BB24B394BE0C52
:1033600027E04B2D6C2D8FE894E00E94150979E041
:10337000F72EFC0C27E04B2D6F2D8FE894E00E9478
:1033800015090093AF040093B004E3E0BE2EBC0C1B
:103390004E2D6B2D8FE894E00E94390705E00C0D4F
:1033A0004E2D602F8FE894E00E9439074D2D6B2D34
:1033B0008FE894E00E9439074D2D602F8FE894E04C
:1033C0000E943907F3E0DF2EDE0C4D2D6C2D8FE8C7
:1033D00094E00E94390705E00E0D402F6C2D8FE818
:1033E00094E00E9439074D2D6F2D8FE894E00E94E4
:1033F0003907402F6F2D8FE894E00E9439078091A4
:103400007601882309F472C044EFB42EB80E8C30D4
:1034100008F0B12CE0907401F0907501B7010F2C09
:10342000000C880B990B0E94131200919704909145
:103430009304099F002D1124089F002D1124AA2414
:10344000A394A0929704A092AF04A092B004D0904D
:10345000940422E0722E7D0C32E0532E500E9924FB
:103460009A949B0C802E869468E2C62EC818252D4F
:10347000492D6C2D8FE894E00E94FB0741E04D0D33
:10348000490D252D6C2D8FE894E00E94FB07272D18
:10349000492D6C2D8FE894E00E941509DD24D3940A
:1034A000D00E6D2D6C0D272D492D8FE894E00E94D4
:1034B00015091092AF041092B004009194040F5FAC
:1034C00069E268192D2D492D8FE894E00E941708B4
:1034D000A092AF04A092B004B0929904C7010E94D8
:1034E000D60E8091760181508093760180913002D2
:1034F0008823F1F000919404902F969588E1891B20
:10350000809399041092AF041092B0040E5F47E1CB
:10351000491B24E560E08FE894E00E94170881E0F1
:103520008093AF048093B00481E892E00E94D60EAD
:1035300080913102882309F478C080912E0288237B
:1035400009F473C0009194048BE0E82EF12CE01A8A
:10355000F108EE0CFF1C81E0E81AF1081092AF04AC
:103560001092B004000F000F0A5F24E54E2D60E0BA
:103570008FE894E00E94170881E08093AF04809365
:10358000B004E394E092990485E792E00E94D60E9D
:103590000AE000939804809194048F5F90919904BD
:1035A000890F809399046DE471E08FE894E00E94A4
:1035B0008D096091D2017091D3018FE894E00E944F
:1035C000320A00939804809194048F5F909199043B
:1035D000890F8093990465E571E08FE894E00E947B
:1035E0008D096091D0017091D1018FE894E00E9423
:1035F000320A809194048F5F90919904890F80938F
:1036000099048091970490919304899FC00111249B
:10361000880F880F880F9AE2981B9093980461E6B0
:1036200071E08FE894E00E948D0980E090E0892BA2
:1036300009F45BC90E94000057C926EB32E0FCCDBB
:103640002DEA32E0F9CD24EA32E0F6CD2BE932E082
:10365000F3CD22E932E0F0CD29E832E0EDCD4AE0C9
:10366000B1018091D0019091D1010E94101CF10113
:1036700001900020E9F73197E219F309909197043E
:1036800080919304989F902D112482E59E9F80192C
:10369000112480939804B1018FE894E00E948D0971
:1036A0001FCE109292041092910489E091E09093C1
:1036B000900480938F0408958F929F92AF92BF924F
:1036C000CF92DF92EF92FF92CF93DF93EC0168816C
:1036D00079818A819B81611571058105910521F4AC
:1036E00064E279ED8BE597E02DE133EF41E050E0C6
:1036F0000E945B1C49015A019B01AC01A7EAB1E49D
:103700000E947A1C6B017C01ACEEB4EFA501940120
:103710000E94881CC60ED71EE81EF91EF7FE06C0C2
:1037200081E0C81AD108E10880E8F80AC882D98285
:10373000EA82FB82C701B6019F77DF91CF91FF90AC
:10374000EF90DF90CF90BF90AF909F908F900895B3
:103750008F929F92AF92BF92CF92DF92EF92FF92A1
:103760006091010170910201809103019091040127
:10377000611571058105910521F464E279ED8BE510
:1037800097E02DE133EF41E050E00E945B1C4901DE
:103790005A019B01AC01A7EAB1E40E947A1C6B01BB
:1037A0007C01ACEEB4EFA50194010E94881CC60E0A
:1037B000D71EE81EF91EF7FE06C081E0C81AD10820
:1037C000E10880E8F80AC0920101D0920201E0927B
:1037D0000301F0920401C701B6019F77FF90EF90BB
:1037E000DF90CF90BF90AF909F908F90089560939F
:1037F00001017093020180930301909304010895E5
:10380000FB01DC018D91059080190110D9F3990B12
:103810000895FB01DC0105900D920020E1F7089569
:10382000BB274A3031F4992322F4BDE2909581956B
:103830009F4F0C941C1CBB27FB015527AA27880F00
:10384000991FAA1FA41710F0A41B83955051B9F714
:10385000A05DAA3308F0A95DA193009779F7B11193
:10386000B1931192CB010C94351CDC01FC01672F44
:1038700071917723E1F7329704C07C916D93708347
:103880006291AE17BF07C8F30895F999FECF92BDB4
:1038900081BDF89A992780B50895262FF999FECF12
:1038A0001FBA92BD81BD20BD0FB6F894FA9AF99A5D
:1038B0000FBE01960895052E97FB1EF400940E94FA
:1038C000721C57FD07D00E948D1C07FC03D04EF4DC
:1038D0000C94721C50954095309521953F4F4F4F59
:1038E0005F4F089590958095709561957F4F8F4FAC
:1038F0009F4F08950E94AF1CA59F900DB49F900DFF
:10390000A49F800D911D11240895B7FF0C947A1C7B
:103910000E947A1C821B930B0895A1E21A2EAA1B07
:10392000BB1BFD010DC0AA1FBB1FEE1FFF1FA2176F
:10393000B307E407F50720F0A21BB30BE40BF50B6C
:10394000661F771F881F991F1A9469F760957095F5
:10395000809590959B01AC01BD01CF010895A29F78
:10396000B001B39FC001A39F700D811D1124911D53
:10397000B29F700D811D1124911D08950E94321D6A
:1039800088F09F5798F0B92F9927B751B0F0E1F020
:10399000660F771F881F991F1AF0BA95C9F714C0D0
:1039A000B13091F00E944C1DB1E008950C944C1D73
:1039B000672F782F8827B85F39F0B93FCCF3869509
:1039C00077956795B395D9F73EF490958095709566
:1039D00061957F4F8F4F9F4F0895E89409C097FBE3
:1039E0003EF490958095709561957F4F8F4F9F4FD6
:1039F0009923A9F0F92F96E9BB279395F69587951A
:103A000077956795B795F111F8CFFAF4BB0F11F4DC
:103A100060FF1BC06F5F7F4F8F4F9F4F16C0882383
:103A200011F096E911C0772321F09EE8872F762FB9
:103A300005C0662371F096E8862F70E060E02AF0FA
:103A40009A95660F771F881FDAF7880F96958795E6
:103A500097F9089557FD9058440F551F59F05F3F4F
:103A600071F04795880F97FB991F61F09F3F79F0A0
:103A700087950895121613061406551FF2CF469522
:103A8000F1DF08C0161617061806991FF1CF8695A4
:103A90007105610508940895E894BB276627772788
:103AA000CB0197F908950E94661D0C94D71D0E94C2
:103AB000C91D38F00E94D01D20F0952311F00C9400
:103AC000C01D0C94C61D11240C944D1D0E942A1D6E
:103AD00070F3959FC1F3950F50E0551F629FF00161
:103AE000729FBB27F00DB11D639FAA27F00DB11D7A
:103AF000AA1F649F6627B00DA11D661F829F222703
:103B0000B00DA11D621F739FB00DA11D621F839F89
:103B1000A00D611D221F749F3327A00D611D231F5F
:103B2000849F600D211D822F762F6A2F11249F57AD
:103B300050409AF0F1F088234AF0EE0FFF1FBB1FB0
:103B4000661F771F881F91505040A9F79E3F51056F
:103B500080F00C94C01D0C944D1D5F3FE4F3983E23
:103B6000D4F3869577956795B795F795E7959F5F19
:103B7000C1F7FE2B880F911D9695879597F90895AB
:103B800097F99F6780E870E060E008959FEF80EC10
:103B9000089500240A9416161706180609060895B3
:103BA00000240A9412161306140605060895092E19
:103BB0000394000C11F4882352F0BB0F40F4BF2B88
:103BC00011F460FF04C06F5F7F4F8F4F9F4F0895C8
:103BD000DB018F939F930E947A1CBF91AF91A29FAC
:103BE000800D911DA39F900DB29F900D11240895FB
:103BF000991B79E004C0991F961708F0961B881F3F
:103C00007A95C9F78095089597FB072E16F40094CE
:103C100007D077FD09D00E941E1E07FC05D03EF498
:103C2000909581959F4F0895709561957F4F089568
:103C3000EE0FFF1F0590F491E02D0994AA1BBB1B0A
:103C400051E107C0AA1FBB1FA617B70710F0A61B9C
:103C5000B70B881F991F5A95A9F780959095BC01BD
:083C6000CD010895F894FFCF97
:103C6800010100000000000000400870058A098971
:103C78000900010100020000010101020000000129
:103C88000102000001010002010000010002010020
:103C98000001010201000000020003000000010011
:103CA800030D0A004C4F41444552003A0053636FDC
:103CB80072653A20004869676873636F72653A20D5
:103CC80000613A20626F6172642C20623A206E654E
:023CD800770073
:00000001FF
